{
	"Documents/GitHub/Blockchain/WalletETH_2.sol": {
		"WalletETH2": {
			"abi": [
				{
					"inputs": [],
					"stateMutability": "nonpayable",
					"type": "constructor"
				},
				{
					"inputs": [
						{
							"internalType": "bool",
							"name": "_confirmation",
							"type": "bool"
						}
					],
					"name": "destroy",
					"outputs": [],
					"stateMutability": "nonpayable",
					"type": "function"
				},
				{
					"inputs": [],
					"name": "getBalance",
					"outputs": [
						{
							"internalType": "uint256",
							"name": "",
							"type": "uint256"
						}
					],
					"stateMutability": "view",
					"type": "function"
				},
				{
					"inputs": [],
					"name": "getGlobalBalance",
					"outputs": [
						{
							"internalType": "uint256",
							"name": "",
							"type": "uint256"
						}
					],
					"stateMutability": "view",
					"type": "function"
				},
				{
					"inputs": [
						{
							"internalType": "address",
							"name": "_user",
							"type": "address"
						}
					],
					"name": "getNumberOfTransacts",
					"outputs": [
						{
							"internalType": "uint256",
							"name": "",
							"type": "uint256"
						}
					],
					"stateMutability": "view",
					"type": "function"
				},
				{
					"inputs": [
						{
							"internalType": "bool",
							"name": "_confirmation",
							"type": "bool"
						}
					],
					"name": "withdrawAllMoneyGlobalRoot",
					"outputs": [],
					"stateMutability": "nonpayable",
					"type": "function"
				},
				{
					"inputs": [
						{
							"internalType": "address",
							"name": "_user",
							"type": "address"
						}
					],
					"name": "withdrawAllToUser",
					"outputs": [],
					"stateMutability": "nonpayable",
					"type": "function"
				},
				{
					"inputs": [
						{
							"internalType": "uint256",
							"name": "_amount",
							"type": "uint256"
						}
					],
					"name": "withdrawSpecificAmount",
					"outputs": [],
					"stateMutability": "nonpayable",
					"type": "function"
				},
				{
					"stateMutability": "payable",
					"type": "receive"
				}
			],
			"devdoc": {
				"kind": "dev",
				"methods": {},
				"version": 1
			},
			"evm": {
				"assembly": "    /* \"Documents/GitHub/Blockchain/WalletETH_2.sol\":302:4748  contract WalletETH2{\r... */\n  mstore(0x40, 0x80)\n    /* \"Documents/GitHub/Blockchain/WalletETH_2.sol\":1091:1188  constructor(){//set owner of the contract when deployed\r... */\n  callvalue\n  dup1\n  iszero\n  tag_1\n  jumpi\n  0x00\n  dup1\n  revert\ntag_1:\n  pop\n    /* \"Documents/GitHub/Blockchain/WalletETH_2.sol\":1164:1174  msg.sender */\n  caller\n    /* \"Documents/GitHub/Blockchain/WalletETH_2.sol\":1156:1161  owner */\n  0x00\n  dup1\n    /* \"Documents/GitHub/Blockchain/WalletETH_2.sol\":1156:1174  owner = msg.sender */\n  0x0100\n  exp\n  dup2\n  sload\n  dup2\n  0xffffffffffffffffffffffffffffffffffffffff\n  mul\n  not\n  and\n  swap1\n  dup4\n  0xffffffffffffffffffffffffffffffffffffffff\n  and\n  mul\n  or\n  swap1\n  sstore\n  pop\n    /* \"Documents/GitHub/Blockchain/WalletETH_2.sol\":302:4748  contract WalletETH2{\r... */\n  dataSize(sub_0)\n  dup1\n  dataOffset(sub_0)\n  0x00\n  codecopy\n  0x00\n  return\nstop\n\nsub_0: assembly {\n        /* \"Documents/GitHub/Blockchain/WalletETH_2.sol\":302:4748  contract WalletETH2{\r... */\n      mstore(0x40, 0x80)\n      jumpi(tag_1, lt(calldatasize, 0x04))\n      shr(0xe0, calldataload(0x00))\n      dup1\n      0x76778d6e\n      gt\n      tag_10\n      jumpi\n      dup1\n      0x76778d6e\n      eq\n      tag_6\n      jumpi\n      dup1\n      0xc93f65b8\n      eq\n      tag_7\n      jumpi\n      dup1\n      0xd2cba116\n      eq\n      tag_8\n      jumpi\n      dup1\n      0xde9b0028\n      eq\n      tag_9\n      jumpi\n      jump(tag_2)\n    tag_10:\n      dup1\n      0x12065fe0\n      eq\n      tag_3\n      jumpi\n      dup1\n      0x23d468e2\n      eq\n      tag_4\n      jumpi\n      dup1\n      0x38a03563\n      eq\n      tag_5\n      jumpi\n      jump(tag_2)\n    tag_1:\n      jumpi(tag_2, calldatasize)\n        /* \"Documents/GitHub/Blockchain/WalletETH_2.sol\":800:809  msg.value */\n      callvalue\n        /* \"Documents/GitHub/Blockchain/WalletETH_2.sol\":770:777  Wallets */\n      0x03\n        /* \"Documents/GitHub/Blockchain/WalletETH_2.sol\":770:789  Wallets[msg.sender] */\n      0x00\n        /* \"Documents/GitHub/Blockchain/WalletETH_2.sol\":778:788  msg.sender */\n      caller\n        /* \"Documents/GitHub/Blockchain/WalletETH_2.sol\":770:789  Wallets[msg.sender] */\n      0xffffffffffffffffffffffffffffffffffffffff\n      and\n      0xffffffffffffffffffffffffffffffffffffffff\n      and\n      dup2\n      mstore\n      0x20\n      add\n      swap1\n      dup2\n      mstore\n      0x20\n      add\n      0x00\n      keccak256\n        /* \"Documents/GitHub/Blockchain/WalletETH_2.sol\":770:797  Wallets[msg.sender].balance */\n      0x00\n      add\n      sload\n        /* \"Documents/GitHub/Blockchain/WalletETH_2.sol\":770:809  Wallets[msg.sender].balance + msg.value */\n      tag_13\n      swap2\n      swap1\n      tag_14\n      jump\t// in\n    tag_13:\n        /* \"Documents/GitHub/Blockchain/WalletETH_2.sol\":740:747  Wallets */\n      0x03\n        /* \"Documents/GitHub/Blockchain/WalletETH_2.sol\":740:759  Wallets[msg.sender] */\n      0x00\n        /* \"Documents/GitHub/Blockchain/WalletETH_2.sol\":748:758  msg.sender */\n      caller\n        /* \"Documents/GitHub/Blockchain/WalletETH_2.sol\":740:759  Wallets[msg.sender] */\n      0xffffffffffffffffffffffffffffffffffffffff\n      and\n      0xffffffffffffffffffffffffffffffffffffffff\n      and\n      dup2\n      mstore\n      0x20\n      add\n      swap1\n      dup2\n      mstore\n      0x20\n      add\n      0x00\n      keccak256\n        /* \"Documents/GitHub/Blockchain/WalletETH_2.sol\":740:767  Wallets[msg.sender].balance */\n      0x00\n      add\n        /* \"Documents/GitHub/Blockchain/WalletETH_2.sol\":740:809  Wallets[msg.sender].balance = Wallets[msg.sender].balance + msg.value */\n      dup2\n      swap1\n      sstore\n      pop\n        /* \"Documents/GitHub/Blockchain/WalletETH_2.sol\":875:876  1 */\n      0x01\n        /* \"Documents/GitHub/Blockchain/WalletETH_2.sol\":836:843  Wallets */\n      0x03\n        /* \"Documents/GitHub/Blockchain/WalletETH_2.sol\":836:855  Wallets[msg.sender] */\n      0x00\n        /* \"Documents/GitHub/Blockchain/WalletETH_2.sol\":844:854  msg.sender */\n      caller\n        /* \"Documents/GitHub/Blockchain/WalletETH_2.sol\":836:855  Wallets[msg.sender] */\n      0xffffffffffffffffffffffffffffffffffffffff\n      and\n      0xffffffffffffffffffffffffffffffffffffffff\n      and\n      dup2\n      mstore\n      0x20\n      add\n      swap1\n      dup2\n      mstore\n      0x20\n      add\n      0x00\n      keccak256\n        /* \"Documents/GitHub/Blockchain/WalletETH_2.sol\":836:872  Wallets[msg.sender].numberOfTransact */\n      0x01\n      add\n      0x00\n        /* \"Documents/GitHub/Blockchain/WalletETH_2.sol\":836:876  Wallets[msg.sender].numberOfTransact +=1 */\n      dup3\n      dup3\n      sload\n      tag_15\n      swap2\n      swap1\n      tag_14\n      jump\t// in\n    tag_15:\n      swap3\n      pop\n      pop\n      dup2\n      swap1\n      sstore\n      pop\n        /* \"Documents/GitHub/Blockchain/WalletETH_2.sol\":930:931  1 */\n      0x01\n        /* \"Documents/GitHub/Blockchain/WalletETH_2.sol\":890:897  Wallets */\n      0x03\n        /* \"Documents/GitHub/Blockchain/WalletETH_2.sol\":890:909  Wallets[msg.sender] */\n      0x00\n        /* \"Documents/GitHub/Blockchain/WalletETH_2.sol\":898:908  msg.sender */\n      caller\n        /* \"Documents/GitHub/Blockchain/WalletETH_2.sol\":890:909  Wallets[msg.sender] */\n      0xffffffffffffffffffffffffffffffffffffffff\n      and\n      0xffffffffffffffffffffffffffffffffffffffff\n      and\n      dup2\n      mstore\n      0x20\n      add\n      swap1\n      dup2\n      mstore\n      0x20\n      add\n      0x00\n      keccak256\n        /* \"Documents/GitHub/Blockchain/WalletETH_2.sol\":890:926  Wallets[msg.sender].numberOfTransact */\n      0x01\n      add\n      sload\n        /* \"Documents/GitHub/Blockchain/WalletETH_2.sol\":890:931  Wallets[msg.sender].numberOfTransact == 1 */\n      eq\n        /* \"Documents/GitHub/Blockchain/WalletETH_2.sol\":887:1042  if(Wallets[msg.sender].numberOfTransact == 1){//add the user to register if it is the first transaction \r... */\n      iszero\n      tag_16\n      jumpi\n        /* \"Documents/GitHub/Blockchain/WalletETH_2.sol\":1005:1013  registre */\n      0x01\n        /* \"Documents/GitHub/Blockchain/WalletETH_2.sol\":1019:1029  msg.sender */\n      caller\n        /* \"Documents/GitHub/Blockchain/WalletETH_2.sol\":1005:1030  registre.push(msg.sender) */\n      swap1\n      dup1\n      0x01\n      dup2\n      sload\n      add\n      dup1\n      dup3\n      sstore\n      dup1\n      swap2\n      pop\n      pop\n      0x01\n      swap1\n      sub\n      swap1\n      0x00\n      mstore\n      keccak256(0x00, 0x20)\n      add\n      0x00\n      swap1\n      swap2\n      swap1\n      swap2\n      swap1\n      swap2\n      0x0100\n      exp\n      dup2\n      sload\n      dup2\n      0xffffffffffffffffffffffffffffffffffffffff\n      mul\n      not\n      and\n      swap1\n      dup4\n      0xffffffffffffffffffffffffffffffffffffffff\n      and\n      mul\n      or\n      swap1\n      sstore\n      pop\n        /* \"Documents/GitHub/Blockchain/WalletETH_2.sol\":887:1042  if(Wallets[msg.sender].numberOfTransact == 1){//add the user to register if it is the first transaction \r... */\n    tag_16:\n        /* \"Documents/GitHub/Blockchain/WalletETH_2.sol\":1066:1067  1 */\n      0x01\n        /* \"Documents/GitHub/Blockchain/WalletETH_2.sol\":1052:1063  numberUsers */\n      0x02\n      0x00\n        /* \"Documents/GitHub/Blockchain/WalletETH_2.sol\":1052:1067  numberUsers +=1 */\n      dup3\n      dup3\n      sload\n      tag_18\n      swap2\n      swap1\n      tag_14\n      jump\t// in\n    tag_18:\n      swap3\n      pop\n      pop\n      dup2\n      swap1\n      sstore\n      pop\n        /* \"Documents/GitHub/Blockchain/WalletETH_2.sol\":302:4748  contract WalletETH2{\r... */\n      stop\n    tag_2:\n      0x00\n      dup1\n      revert\n        /* \"Documents/GitHub/Blockchain/WalletETH_2.sol\":1521:1669  function getBalance() public view returns(uint){//get balance of the person calling the contract\r... */\n    tag_3:\n      callvalue\n      dup1\n      iszero\n      tag_19\n      jumpi\n      0x00\n      dup1\n      revert\n    tag_19:\n      pop\n      tag_20\n      tag_21\n      jump\t// in\n    tag_20:\n      mload(0x40)\n      tag_22\n      swap2\n      swap1\n      tag_23\n      jump\t// in\n    tag_22:\n      mload(0x40)\n      dup1\n      swap2\n      sub\n      swap1\n      return\n        /* \"Documents/GitHub/Blockchain/WalletETH_2.sol\":1369:1513  function getGlobalBalance() public view returns(uint){//get global funds deposited on the contract\r... */\n    tag_4:\n      callvalue\n      dup1\n      iszero\n      tag_24\n      jumpi\n      0x00\n      dup1\n      revert\n    tag_24:\n      pop\n      tag_25\n      tag_26\n      jump\t// in\n    tag_25:\n      mload(0x40)\n      tag_27\n      swap2\n      swap1\n      tag_23\n      jump\t// in\n    tag_27:\n      mload(0x40)\n      dup1\n      swap2\n      sub\n      swap1\n      return\n        /* \"Documents/GitHub/Blockchain/WalletETH_2.sol\":3495:3810  function destroy(bool _confirmation) public {//destruct contract and return all funds to user's address\r... */\n    tag_5:\n      callvalue\n      dup1\n      iszero\n      tag_28\n      jumpi\n      0x00\n      dup1\n      revert\n    tag_28:\n      pop\n      tag_29\n      0x04\n      dup1\n      calldatasize\n      sub\n      dup2\n      add\n      swap1\n      tag_30\n      swap2\n      swap1\n      tag_31\n      jump\t// in\n    tag_30:\n      tag_32\n      jump\t// in\n    tag_29:\n      stop\n        /* \"Documents/GitHub/Blockchain/WalletETH_2.sol\":2653:3183  function withdrawSpecificAmount(uint _amount) external{//user wants to withdraw a specific amount from the contract\r... */\n    tag_6:\n      callvalue\n      dup1\n      iszero\n      tag_33\n      jumpi\n      0x00\n      dup1\n      revert\n    tag_33:\n      pop\n      tag_34\n      0x04\n      dup1\n      calldatasize\n      sub\n      dup2\n      add\n      swap1\n      tag_35\n      swap2\n      swap1\n      tag_36\n      jump\t// in\n    tag_35:\n      tag_37\n      jump\t// in\n    tag_34:\n      stop\n        /* \"Documents/GitHub/Blockchain/WalletETH_2.sol\":1677:2414  function withdrawAllMoneyGlobalRoot(bool _confirmation) public {//owner can returns all funds to users\r... */\n    tag_7:\n      callvalue\n      dup1\n      iszero\n      tag_38\n      jumpi\n      0x00\n      dup1\n      revert\n    tag_38:\n      pop\n      tag_39\n      0x04\n      dup1\n      calldatasize\n      sub\n      dup2\n      add\n      swap1\n      tag_40\n      swap2\n      swap1\n      tag_31\n      jump\t// in\n    tag_40:\n      tag_41\n      jump\t// in\n    tag_39:\n      stop\n        /* \"Documents/GitHub/Blockchain/WalletETH_2.sol\":3191:3487  function withdrawAllToUser(address _user) public{//user can get all its funds back to its address\r... */\n    tag_8:\n      callvalue\n      dup1\n      iszero\n      tag_42\n      jumpi\n      0x00\n      dup1\n      revert\n    tag_42:\n      pop\n      tag_43\n      0x04\n      dup1\n      calldatasize\n      sub\n      dup2\n      add\n      swap1\n      tag_44\n      swap2\n      swap1\n      tag_45\n      jump\t// in\n    tag_44:\n      tag_46\n      jump\t// in\n    tag_43:\n      stop\n        /* \"Documents/GitHub/Blockchain/WalletETH_2.sol\":1196:1361  function getNumberOfTransacts(address _user) public view returns(uint){\r... */\n    tag_9:\n      callvalue\n      dup1\n      iszero\n      tag_47\n      jumpi\n      0x00\n      dup1\n      revert\n    tag_47:\n      pop\n      tag_48\n      0x04\n      dup1\n      calldatasize\n      sub\n      dup2\n      add\n      swap1\n      tag_49\n      swap2\n      swap1\n      tag_45\n      jump\t// in\n    tag_49:\n      tag_50\n      jump\t// in\n    tag_48:\n      mload(0x40)\n      tag_51\n      swap2\n      swap1\n      tag_23\n      jump\t// in\n    tag_51:\n      mload(0x40)\n      dup1\n      swap2\n      sub\n      swap1\n      return\n        /* \"Documents/GitHub/Blockchain/WalletETH_2.sol\":1521:1669  function getBalance() public view returns(uint){//get balance of the person calling the contract\r... */\n    tag_21:\n        /* \"Documents/GitHub/Blockchain/WalletETH_2.sol\":1563:1567  uint */\n      0x00\n        /* \"Documents/GitHub/Blockchain/WalletETH_2.sol\":1634:1641  Wallets */\n      0x03\n        /* \"Documents/GitHub/Blockchain/WalletETH_2.sol\":1634:1653  Wallets[msg.sender] */\n      0x00\n        /* \"Documents/GitHub/Blockchain/WalletETH_2.sol\":1642:1652  msg.sender */\n      caller\n        /* \"Documents/GitHub/Blockchain/WalletETH_2.sol\":1634:1653  Wallets[msg.sender] */\n      0xffffffffffffffffffffffffffffffffffffffff\n      and\n      0xffffffffffffffffffffffffffffffffffffffff\n      and\n      dup2\n      mstore\n      0x20\n      add\n      swap1\n      dup2\n      mstore\n      0x20\n      add\n      0x00\n      keccak256\n        /* \"Documents/GitHub/Blockchain/WalletETH_2.sol\":1634:1661  Wallets[msg.sender].balance */\n      0x00\n      add\n      sload\n        /* \"Documents/GitHub/Blockchain/WalletETH_2.sol\":1627:1661  return Wallets[msg.sender].balance */\n      swap1\n      pop\n        /* \"Documents/GitHub/Blockchain/WalletETH_2.sol\":1521:1669  function getBalance() public view returns(uint){//get balance of the person calling the contract\r... */\n      swap1\n      jump\t// out\n        /* \"Documents/GitHub/Blockchain/WalletETH_2.sol\":1369:1513  function getGlobalBalance() public view returns(uint){//get global funds deposited on the contract\r... */\n    tag_26:\n        /* \"Documents/GitHub/Blockchain/WalletETH_2.sol\":1417:1421  uint */\n      0x00\n        /* \"Documents/GitHub/Blockchain/WalletETH_2.sol\":1484:1505  address(this).balance */\n      selfbalance\n        /* \"Documents/GitHub/Blockchain/WalletETH_2.sol\":1477:1505  return address(this).balance */\n      swap1\n      pop\n        /* \"Documents/GitHub/Blockchain/WalletETH_2.sol\":1369:1513  function getGlobalBalance() public view returns(uint){//get global funds deposited on the contract\r... */\n      swap1\n      jump\t// out\n        /* \"Documents/GitHub/Blockchain/WalletETH_2.sol\":3495:3810  function destroy(bool _confirmation) public {//destruct contract and return all funds to user's address\r... */\n    tag_32:\n        /* \"Documents/GitHub/Blockchain/WalletETH_2.sol\":3630:3635  owner */\n      0x00\n      dup1\n      sload\n      swap1\n      0x0100\n      exp\n      swap1\n      div\n      0xffffffffffffffffffffffffffffffffffffffff\n      and\n        /* \"Documents/GitHub/Blockchain/WalletETH_2.sol\":3616:3635  msg.sender == owner */\n      0xffffffffffffffffffffffffffffffffffffffff\n      and\n        /* \"Documents/GitHub/Blockchain/WalletETH_2.sol\":3616:3626  msg.sender */\n      caller\n        /* \"Documents/GitHub/Blockchain/WalletETH_2.sol\":3616:3635  msg.sender == owner */\n      0xffffffffffffffffffffffffffffffffffffffff\n      and\n      eq\n        /* \"Documents/GitHub/Blockchain/WalletETH_2.sol\":3608:3652  require(msg.sender == owner,\"Not the owner\") */\n      tag_55\n      jumpi\n      mload(0x40)\n      0x08c379a000000000000000000000000000000000000000000000000000000000\n      dup2\n      mstore\n      0x04\n      add\n      tag_56\n      swap1\n      tag_57\n      jump\t// in\n    tag_56:\n      mload(0x40)\n      dup1\n      swap2\n      sub\n      swap1\n      revert\n    tag_55:\n        /* \"Documents/GitHub/Blockchain/WalletETH_2.sol\":3683:3724  withdrawAllMoneyGlobalRoot(_confirmation) */\n      tag_58\n        /* \"Documents/GitHub/Blockchain/WalletETH_2.sol\":3710:3723  _confirmation */\n      dup2\n        /* \"Documents/GitHub/Blockchain/WalletETH_2.sol\":3683:3709  withdrawAllMoneyGlobalRoot */\n      tag_41\n        /* \"Documents/GitHub/Blockchain/WalletETH_2.sol\":3683:3724  withdrawAllMoneyGlobalRoot(_confirmation) */\n      jump\t// in\n    tag_58:\n        /* \"Documents/GitHub/Blockchain/WalletETH_2.sol\":3770:3780  msg.sender */\n      caller\n        /* \"Documents/GitHub/Blockchain/WalletETH_2.sol\":3749:3782  selfdestruct(payable(msg.sender)) */\n      0xffffffffffffffffffffffffffffffffffffffff\n      and\n      selfdestruct\n        /* \"Documents/GitHub/Blockchain/WalletETH_2.sol\":2653:3183  function withdrawSpecificAmount(uint _amount) external{//user wants to withdraw a specific amount from the contract\r... */\n    tag_37:\n        /* \"Documents/GitHub/Blockchain/WalletETH_2.sol\":2778:2790  uint amountF */\n      0x00\n        /* \"Documents/GitHub/Blockchain/WalletETH_2.sol\":2793:2819  convertEtherToWei(_amount) */\n      tag_60\n        /* \"Documents/GitHub/Blockchain/WalletETH_2.sol\":2811:2818  _amount */\n      dup3\n        /* \"Documents/GitHub/Blockchain/WalletETH_2.sol\":2793:2810  convertEtherToWei */\n      tag_61\n        /* \"Documents/GitHub/Blockchain/WalletETH_2.sol\":2793:2819  convertEtherToWei(_amount) */\n      jump\t// in\n    tag_60:\n        /* \"Documents/GitHub/Blockchain/WalletETH_2.sol\":2778:2819  uint amountF = convertEtherToWei(_amount) */\n      swap1\n      pop\n        /* \"Documents/GitHub/Blockchain/WalletETH_2.sol\":2886:2893  Wallets */\n      0x03\n        /* \"Documents/GitHub/Blockchain/WalletETH_2.sol\":2886:2905  Wallets[msg.sender] */\n      0x00\n        /* \"Documents/GitHub/Blockchain/WalletETH_2.sol\":2894:2904  msg.sender */\n      caller\n        /* \"Documents/GitHub/Blockchain/WalletETH_2.sol\":2886:2905  Wallets[msg.sender] */\n      0xffffffffffffffffffffffffffffffffffffffff\n      and\n      0xffffffffffffffffffffffffffffffffffffffff\n      and\n      dup2\n      mstore\n      0x20\n      add\n      swap1\n      dup2\n      mstore\n      0x20\n      add\n      0x00\n      keccak256\n        /* \"Documents/GitHub/Blockchain/WalletETH_2.sol\":2886:2913  Wallets[msg.sender].balance */\n      0x00\n      add\n      sload\n        /* \"Documents/GitHub/Blockchain/WalletETH_2.sol\":2875:2882  amountF */\n      dup2\n        /* \"Documents/GitHub/Blockchain/WalletETH_2.sol\":2875:2913  amountF <= Wallets[msg.sender].balance */\n      gt\n      iszero\n        /* \"Documents/GitHub/Blockchain/WalletETH_2.sol\":2867:2956  require(amountF <= Wallets[msg.sender].balance,\"Please enter a lower amount to withdraw\") */\n      tag_62\n      jumpi\n      mload(0x40)\n      0x08c379a000000000000000000000000000000000000000000000000000000000\n      dup2\n      mstore\n      0x04\n      add\n      tag_63\n      swap1\n      tag_64\n      jump\t// in\n    tag_63:\n      mload(0x40)\n      dup1\n      swap2\n      sub\n      swap1\n      revert\n    tag_62:\n        /* \"Documents/GitHub/Blockchain/WalletETH_2.sol\":2998:3008  msg.sender */\n      caller\n        /* \"Documents/GitHub/Blockchain/WalletETH_2.sol\":2990:3014  payable(msg.sender).send */\n      0xffffffffffffffffffffffffffffffffffffffff\n      and\n        /* \"Documents/GitHub/Blockchain/WalletETH_2.sol\":2990:3023  payable(msg.sender).send(amountF) */\n      0x08fc\n        /* \"Documents/GitHub/Blockchain/WalletETH_2.sol\":3015:3022  amountF */\n      dup3\n        /* \"Documents/GitHub/Blockchain/WalletETH_2.sol\":2990:3023  payable(msg.sender).send(amountF) */\n      swap1\n      dup2\n      iszero\n      mul\n      swap1\n      mload(0x40)\n      0x00\n      mload(0x40)\n      dup1\n      dup4\n      sub\n      dup2\n      dup6\n      dup9\n      dup9\n      call\n      swap4\n      pop\n      pop\n      pop\n      pop\n        /* \"Documents/GitHub/Blockchain/WalletETH_2.sol\":2982:3042  require(payable(msg.sender).send(amountF),\"Transfer failed\") */\n      tag_66\n      jumpi\n      mload(0x40)\n      0x08c379a000000000000000000000000000000000000000000000000000000000\n      dup2\n      mstore\n      0x04\n      add\n      tag_67\n      swap1\n      tag_68\n      jump\t// in\n    tag_67:\n      mload(0x40)\n      dup1\n      swap2\n      sub\n      swap1\n      revert\n    tag_66:\n        /* \"Documents/GitHub/Blockchain/WalletETH_2.sol\":3152:3159  amountF */\n      dup1\n        /* \"Documents/GitHub/Blockchain/WalletETH_2.sol\":3122:3129  Wallets */\n      0x03\n        /* \"Documents/GitHub/Blockchain/WalletETH_2.sol\":3122:3141  Wallets[msg.sender] */\n      0x00\n        /* \"Documents/GitHub/Blockchain/WalletETH_2.sol\":3130:3140  msg.sender */\n      caller\n        /* \"Documents/GitHub/Blockchain/WalletETH_2.sol\":3122:3141  Wallets[msg.sender] */\n      0xffffffffffffffffffffffffffffffffffffffff\n      and\n      0xffffffffffffffffffffffffffffffffffffffff\n      and\n      dup2\n      mstore\n      0x20\n      add\n      swap1\n      dup2\n      mstore\n      0x20\n      add\n      0x00\n      keccak256\n        /* \"Documents/GitHub/Blockchain/WalletETH_2.sol\":3122:3149  Wallets[msg.sender].balance */\n      0x00\n      add\n      sload\n        /* \"Documents/GitHub/Blockchain/WalletETH_2.sol\":3122:3159  Wallets[msg.sender].balance - amountF */\n      tag_69\n      swap2\n      swap1\n      tag_70\n      jump\t// in\n    tag_69:\n        /* \"Documents/GitHub/Blockchain/WalletETH_2.sol\":3092:3099  Wallets */\n      0x03\n        /* \"Documents/GitHub/Blockchain/WalletETH_2.sol\":3092:3111  Wallets[msg.sender] */\n      0x00\n        /* \"Documents/GitHub/Blockchain/WalletETH_2.sol\":3100:3110  msg.sender */\n      caller\n        /* \"Documents/GitHub/Blockchain/WalletETH_2.sol\":3092:3111  Wallets[msg.sender] */\n      0xffffffffffffffffffffffffffffffffffffffff\n      and\n      0xffffffffffffffffffffffffffffffffffffffff\n      and\n      dup2\n      mstore\n      0x20\n      add\n      swap1\n      dup2\n      mstore\n      0x20\n      add\n      0x00\n      keccak256\n        /* \"Documents/GitHub/Blockchain/WalletETH_2.sol\":3092:3119  Wallets[msg.sender].balance */\n      0x00\n      add\n        /* \"Documents/GitHub/Blockchain/WalletETH_2.sol\":3092:3159  Wallets[msg.sender].balance = Wallets[msg.sender].balance - amountF */\n      dup2\n      swap1\n      sstore\n      pop\n        /* \"Documents/GitHub/Blockchain/WalletETH_2.sol\":2707:3183  {//user wants to withdraw a specific amount from the contract\r... */\n      pop\n        /* \"Documents/GitHub/Blockchain/WalletETH_2.sol\":2653:3183  function withdrawSpecificAmount(uint _amount) external{//user wants to withdraw a specific amount from the contract\r... */\n      pop\n      jump\t// out\n        /* \"Documents/GitHub/Blockchain/WalletETH_2.sol\":1677:2414  function withdrawAllMoneyGlobalRoot(bool _confirmation) public {//owner can returns all funds to users\r... */\n    tag_41:\n        /* \"Documents/GitHub/Blockchain/WalletETH_2.sol\":1811:1816  owner */\n      0x00\n      dup1\n      sload\n      swap1\n      0x0100\n      exp\n      swap1\n      div\n      0xffffffffffffffffffffffffffffffffffffffff\n      and\n        /* \"Documents/GitHub/Blockchain/WalletETH_2.sol\":1797:1816  msg.sender == owner */\n      0xffffffffffffffffffffffffffffffffffffffff\n      and\n        /* \"Documents/GitHub/Blockchain/WalletETH_2.sol\":1797:1807  msg.sender */\n      caller\n        /* \"Documents/GitHub/Blockchain/WalletETH_2.sol\":1797:1816  msg.sender == owner */\n      0xffffffffffffffffffffffffffffffffffffffff\n      and\n      eq\n        /* \"Documents/GitHub/Blockchain/WalletETH_2.sol\":1789:1834  require(msg.sender == owner, \"Not the owner\") */\n      tag_72\n      jumpi\n      mload(0x40)\n      0x08c379a000000000000000000000000000000000000000000000000000000000\n      dup2\n      mstore\n      0x04\n      add\n      tag_73\n      swap1\n      tag_57\n      jump\t// in\n    tag_73:\n      mload(0x40)\n      dup1\n      swap2\n      sub\n      swap1\n      revert\n    tag_72:\n        /* \"Documents/GitHub/Blockchain/WalletETH_2.sol\":1907:1920  _confirmation */\n      dup1\n        /* \"Documents/GitHub/Blockchain/WalletETH_2.sol\":1899:1939  require(_confirmation,\"Need to confirm\") */\n      tag_74\n      jumpi\n      mload(0x40)\n      0x08c379a000000000000000000000000000000000000000000000000000000000\n      dup2\n      mstore\n      0x04\n      add\n      tag_75\n      swap1\n      tag_76\n      jump\t// in\n    tag_75:\n      mload(0x40)\n      dup1\n      swap2\n      sub\n      swap1\n      revert\n    tag_74:\n        /* \"Documents/GitHub/Blockchain/WalletETH_2.sol\":2010:2016  uint i */\n      0x00\n        /* \"Documents/GitHub/Blockchain/WalletETH_2.sol\":2005:2407  for (uint i = 0; i < registre.length; i++) {\r... */\n    tag_77:\n        /* \"Documents/GitHub/Blockchain/WalletETH_2.sol\":2026:2034  registre */\n      0x01\n        /* \"Documents/GitHub/Blockchain/WalletETH_2.sol\":2026:2041  registre.length */\n      dup1\n      sload\n      swap1\n      pop\n        /* \"Documents/GitHub/Blockchain/WalletETH_2.sol\":2022:2023  i */\n      dup2\n        /* \"Documents/GitHub/Blockchain/WalletETH_2.sol\":2022:2041  i < registre.length */\n      lt\n        /* \"Documents/GitHub/Blockchain/WalletETH_2.sol\":2005:2407  for (uint i = 0; i < registre.length; i++) {\r... */\n      iszero\n      tag_78\n      jumpi\n        /* \"Documents/GitHub/Blockchain/WalletETH_2.sol\":2063:2077  address target */\n      0x00\n        /* \"Documents/GitHub/Blockchain/WalletETH_2.sol\":2080:2088  registre */\n      0x01\n        /* \"Documents/GitHub/Blockchain/WalletETH_2.sol\":2089:2090  i */\n      dup3\n        /* \"Documents/GitHub/Blockchain/WalletETH_2.sol\":2080:2091  registre[i] */\n      dup2\n      sload\n      dup2\n      lt\n      tag_80\n      jumpi\n      tag_81\n      tag_82\n      jump\t// in\n    tag_81:\n    tag_80:\n      swap1\n      0x00\n      mstore\n      keccak256(0x00, 0x20)\n      add\n      0x00\n      swap1\n      sload\n      swap1\n      0x0100\n      exp\n      swap1\n      div\n      0xffffffffffffffffffffffffffffffffffffffff\n      and\n        /* \"Documents/GitHub/Blockchain/WalletETH_2.sol\":2063:2091  address target = registre[i] */\n      swap1\n      pop\n        /* \"Documents/GitHub/Blockchain/WalletETH_2.sol\":2141:2153  uint account */\n      0x00\n        /* \"Documents/GitHub/Blockchain/WalletETH_2.sol\":2156:2163  Wallets */\n      0x03\n        /* \"Documents/GitHub/Blockchain/WalletETH_2.sol\":2156:2171  Wallets[target] */\n      0x00\n        /* \"Documents/GitHub/Blockchain/WalletETH_2.sol\":2164:2170  target */\n      dup4\n        /* \"Documents/GitHub/Blockchain/WalletETH_2.sol\":2156:2171  Wallets[target] */\n      0xffffffffffffffffffffffffffffffffffffffff\n      and\n      0xffffffffffffffffffffffffffffffffffffffff\n      and\n      dup2\n      mstore\n      0x20\n      add\n      swap1\n      dup2\n      mstore\n      0x20\n      add\n      0x00\n      keccak256\n        /* \"Documents/GitHub/Blockchain/WalletETH_2.sol\":2156:2179  Wallets[target].balance */\n      0x00\n      add\n      sload\n        /* \"Documents/GitHub/Blockchain/WalletETH_2.sol\":2141:2179  uint account = Wallets[target].balance */\n      swap1\n      pop\n        /* \"Documents/GitHub/Blockchain/WalletETH_2.sol\":2271:2277  target */\n      dup2\n        /* \"Documents/GitHub/Blockchain/WalletETH_2.sol\":2263:2283  payable(target).send */\n      0xffffffffffffffffffffffffffffffffffffffff\n      and\n        /* \"Documents/GitHub/Blockchain/WalletETH_2.sol\":2263:2292  payable(target).send(account) */\n      0x08fc\n        /* \"Documents/GitHub/Blockchain/WalletETH_2.sol\":2284:2291  account */\n      dup3\n        /* \"Documents/GitHub/Blockchain/WalletETH_2.sol\":2263:2292  payable(target).send(account) */\n      swap1\n      dup2\n      iszero\n      mul\n      swap1\n      mload(0x40)\n      0x00\n      mload(0x40)\n      dup1\n      dup4\n      sub\n      dup2\n      dup6\n      dup9\n      dup9\n      call\n      swap4\n      pop\n      pop\n      pop\n      pop\n        /* \"Documents/GitHub/Blockchain/WalletETH_2.sol\":2255:2312  require(payable(target).send(account), \"Transfer failed\") */\n      tag_85\n      jumpi\n      mload(0x40)\n      0x08c379a000000000000000000000000000000000000000000000000000000000\n      dup2\n      mstore\n      0x04\n      add\n      tag_86\n      swap1\n      tag_68\n      jump\t// in\n    tag_86:\n      mload(0x40)\n      dup1\n      swap2\n      sub\n      swap1\n      revert\n    tag_85:\n        /* \"Documents/GitHub/Blockchain/WalletETH_2.sol\":2353:2354  0 */\n      0x00\n        /* \"Documents/GitHub/Blockchain/WalletETH_2.sol\":2327:2334  Wallets */\n      0x03\n        /* \"Documents/GitHub/Blockchain/WalletETH_2.sol\":2327:2342  Wallets[target] */\n      0x00\n        /* \"Documents/GitHub/Blockchain/WalletETH_2.sol\":2335:2341  target */\n      dup5\n        /* \"Documents/GitHub/Blockchain/WalletETH_2.sol\":2327:2342  Wallets[target] */\n      0xffffffffffffffffffffffffffffffffffffffff\n      and\n      0xffffffffffffffffffffffffffffffffffffffff\n      and\n      dup2\n      mstore\n      0x20\n      add\n      swap1\n      dup2\n      mstore\n      0x20\n      add\n      0x00\n      keccak256\n        /* \"Documents/GitHub/Blockchain/WalletETH_2.sol\":2327:2350  Wallets[target].balance */\n      0x00\n      add\n        /* \"Documents/GitHub/Blockchain/WalletETH_2.sol\":2327:2354  Wallets[target].balance = 0 */\n      dup2\n      swap1\n      sstore\n      pop\n        /* \"Documents/GitHub/Blockchain/WalletETH_2.sol\":2048:2407  {\r... */\n      pop\n      pop\n        /* \"Documents/GitHub/Blockchain/WalletETH_2.sol\":2043:2046  i++ */\n      dup1\n      dup1\n      tag_87\n      swap1\n      tag_88\n      jump\t// in\n    tag_87:\n      swap2\n      pop\n      pop\n        /* \"Documents/GitHub/Blockchain/WalletETH_2.sol\":2005:2407  for (uint i = 0; i < registre.length; i++) {\r... */\n      jump(tag_77)\n    tag_78:\n      pop\n        /* \"Documents/GitHub/Blockchain/WalletETH_2.sol\":1677:2414  function withdrawAllMoneyGlobalRoot(bool _confirmation) public {//owner can returns all funds to users\r... */\n      pop\n      jump\t// out\n        /* \"Documents/GitHub/Blockchain/WalletETH_2.sol\":3191:3487  function withdrawAllToUser(address _user) public{//user can get all its funds back to its address\r... */\n    tag_46:\n        /* \"Documents/GitHub/Blockchain/WalletETH_2.sol\":3315:3325  msg.sender */\n      caller\n        /* \"Documents/GitHub/Blockchain/WalletETH_2.sol\":3306:3325  _user == msg.sender */\n      0xffffffffffffffffffffffffffffffffffffffff\n      and\n        /* \"Documents/GitHub/Blockchain/WalletETH_2.sol\":3306:3311  _user */\n      dup2\n        /* \"Documents/GitHub/Blockchain/WalletETH_2.sol\":3306:3325  _user == msg.sender */\n      0xffffffffffffffffffffffffffffffffffffffff\n      and\n      eq\n        /* \"Documents/GitHub/Blockchain/WalletETH_2.sol\":3298:3346  require(_user == msg.sender, \"Not your account\") */\n      tag_90\n      jumpi\n      mload(0x40)\n      0x08c379a000000000000000000000000000000000000000000000000000000000\n      dup2\n      mstore\n      0x04\n      add\n      tag_91\n      swap1\n      tag_92\n      jump\t// in\n    tag_91:\n      mload(0x40)\n      dup1\n      swap2\n      sub\n      swap1\n      revert\n    tag_90:\n        /* \"Documents/GitHub/Blockchain/WalletETH_2.sol\":3373:3383  msg.sender */\n      caller\n        /* \"Documents/GitHub/Blockchain/WalletETH_2.sol\":3365:3389  payable(msg.sender).send */\n      0xffffffffffffffffffffffffffffffffffffffff\n      and\n        /* \"Documents/GitHub/Blockchain/WalletETH_2.sol\":3365:3418  payable(msg.sender).send(Wallets[msg.sender].balance) */\n      0x08fc\n        /* \"Documents/GitHub/Blockchain/WalletETH_2.sol\":3390:3397  Wallets */\n      0x03\n        /* \"Documents/GitHub/Blockchain/WalletETH_2.sol\":3390:3409  Wallets[msg.sender] */\n      0x00\n        /* \"Documents/GitHub/Blockchain/WalletETH_2.sol\":3398:3408  msg.sender */\n      caller\n        /* \"Documents/GitHub/Blockchain/WalletETH_2.sol\":3390:3409  Wallets[msg.sender] */\n      0xffffffffffffffffffffffffffffffffffffffff\n      and\n      0xffffffffffffffffffffffffffffffffffffffff\n      and\n      dup2\n      mstore\n      0x20\n      add\n      swap1\n      dup2\n      mstore\n      0x20\n      add\n      0x00\n      keccak256\n        /* \"Documents/GitHub/Blockchain/WalletETH_2.sol\":3390:3417  Wallets[msg.sender].balance */\n      0x00\n      add\n      sload\n        /* \"Documents/GitHub/Blockchain/WalletETH_2.sol\":3365:3418  payable(msg.sender).send(Wallets[msg.sender].balance) */\n      swap1\n      dup2\n      iszero\n      mul\n      swap1\n      mload(0x40)\n      0x00\n      mload(0x40)\n      dup1\n      dup4\n      sub\n      dup2\n      dup6\n      dup9\n      dup9\n      call\n      swap4\n      pop\n      pop\n      pop\n      pop\n        /* \"Documents/GitHub/Blockchain/WalletETH_2.sol\":3357:3437  require(payable(msg.sender).send(Wallets[msg.sender].balance),\"Transfer failed\") */\n      tag_94\n      jumpi\n      mload(0x40)\n      0x08c379a000000000000000000000000000000000000000000000000000000000\n      dup2\n      mstore\n      0x04\n      add\n      tag_95\n      swap1\n      tag_68\n      jump\t// in\n    tag_95:\n      mload(0x40)\n      dup1\n      swap2\n      sub\n      swap1\n      revert\n    tag_94:\n        /* \"Documents/GitHub/Blockchain/WalletETH_2.sol\":3478:3479  0 */\n      0x00\n        /* \"Documents/GitHub/Blockchain/WalletETH_2.sol\":3448:3455  Wallets */\n      0x03\n        /* \"Documents/GitHub/Blockchain/WalletETH_2.sol\":3448:3467  Wallets[msg.sender] */\n      0x00\n        /* \"Documents/GitHub/Blockchain/WalletETH_2.sol\":3456:3466  msg.sender */\n      caller\n        /* \"Documents/GitHub/Blockchain/WalletETH_2.sol\":3448:3467  Wallets[msg.sender] */\n      0xffffffffffffffffffffffffffffffffffffffff\n      and\n      0xffffffffffffffffffffffffffffffffffffffff\n      and\n      dup2\n      mstore\n      0x20\n      add\n      swap1\n      dup2\n      mstore\n      0x20\n      add\n      0x00\n      keccak256\n        /* \"Documents/GitHub/Blockchain/WalletETH_2.sol\":3448:3475  Wallets[msg.sender].balance */\n      0x00\n      add\n        /* \"Documents/GitHub/Blockchain/WalletETH_2.sol\":3448:3479  Wallets[msg.sender].balance = 0 */\n      dup2\n      swap1\n      sstore\n      pop\n        /* \"Documents/GitHub/Blockchain/WalletETH_2.sol\":3191:3487  function withdrawAllToUser(address _user) public{//user can get all its funds back to its address\r... */\n      pop\n      jump\t// out\n        /* \"Documents/GitHub/Blockchain/WalletETH_2.sol\":1196:1361  function getNumberOfTransacts(address _user) public view returns(uint){\r... */\n    tag_50:\n        /* \"Documents/GitHub/Blockchain/WalletETH_2.sol\":1261:1265  uint */\n      0x00\n        /* \"Documents/GitHub/Blockchain/WalletETH_2.sol\":1284:1291  Wallets */\n      0x03\n        /* \"Documents/GitHub/Blockchain/WalletETH_2.sol\":1284:1298  Wallets[_user] */\n      0x00\n        /* \"Documents/GitHub/Blockchain/WalletETH_2.sol\":1292:1297  _user */\n      dup4\n        /* \"Documents/GitHub/Blockchain/WalletETH_2.sol\":1284:1298  Wallets[_user] */\n      0xffffffffffffffffffffffffffffffffffffffff\n      and\n      0xffffffffffffffffffffffffffffffffffffffff\n      and\n      dup2\n      mstore\n      0x20\n      add\n      swap1\n      dup2\n      mstore\n      0x20\n      add\n      0x00\n      keccak256\n        /* \"Documents/GitHub/Blockchain/WalletETH_2.sol\":1284:1315  Wallets[_user].numberOfTransact */\n      0x01\n      add\n      sload\n        /* \"Documents/GitHub/Blockchain/WalletETH_2.sol\":1277:1315  return Wallets[_user].numberOfTransact */\n      swap1\n      pop\n        /* \"Documents/GitHub/Blockchain/WalletETH_2.sol\":1196:1361  function getNumberOfTransacts(address _user) public view returns(uint){\r... */\n      swap2\n      swap1\n      pop\n      jump\t// out\n        /* \"Documents/GitHub/Blockchain/WalletETH_2.sol\":2422:2645  function convertEtherToWei(uint _ether) private pure returns(uint){//convert ether to wei, user's input is in Wei and we want to obtain ethers\r... */\n    tag_61:\n        /* \"Documents/GitHub/Blockchain/WalletETH_2.sol\":2483:2487  uint */\n      0x00\n        /* \"Documents/GitHub/Blockchain/WalletETH_2.sol\":2574:2590  uint amountInWei */\n      dup1\n        /* \"Documents/GitHub/Blockchain/WalletETH_2.sol\":2602:2608  10**18 */\n      0x0de0b6b3a7640000\n        /* \"Documents/GitHub/Blockchain/WalletETH_2.sol\":2593:2599  _ether */\n      dup4\n        /* \"Documents/GitHub/Blockchain/WalletETH_2.sol\":2593:2608  _ether * 10**18 */\n      tag_98\n      swap2\n      swap1\n      tag_99\n      jump\t// in\n    tag_98:\n        /* \"Documents/GitHub/Blockchain/WalletETH_2.sol\":2574:2608  uint amountInWei = _ether * 10**18 */\n      swap1\n      pop\n        /* \"Documents/GitHub/Blockchain/WalletETH_2.sol\":2626:2637  amountInWei */\n      dup1\n        /* \"Documents/GitHub/Blockchain/WalletETH_2.sol\":2619:2637  return amountInWei */\n      swap2\n      pop\n      pop\n        /* \"Documents/GitHub/Blockchain/WalletETH_2.sol\":2422:2645  function convertEtherToWei(uint _ether) private pure returns(uint){//convert ether to wei, user's input is in Wei and we want to obtain ethers\r... */\n      swap2\n      swap1\n      pop\n      jump\t// out\n        /* \"#utility.yul\":7:146   */\n    tag_101:\n        /* \"#utility.yul\":53:58   */\n      0x00\n        /* \"#utility.yul\":91:97   */\n      dup2\n        /* \"#utility.yul\":78:98   */\n      calldataload\n        /* \"#utility.yul\":69:98   */\n      swap1\n      pop\n        /* \"#utility.yul\":107:140   */\n      tag_103\n        /* \"#utility.yul\":134:139   */\n      dup2\n        /* \"#utility.yul\":107:140   */\n      tag_104\n      jump\t// in\n    tag_103:\n        /* \"#utility.yul\":7:146   */\n      swap3\n      swap2\n      pop\n      pop\n      jump\t// out\n        /* \"#utility.yul\":152:285   */\n    tag_105:\n        /* \"#utility.yul\":195:200   */\n      0x00\n        /* \"#utility.yul\":233:239   */\n      dup2\n        /* \"#utility.yul\":220:240   */\n      calldataload\n        /* \"#utility.yul\":211:240   */\n      swap1\n      pop\n        /* \"#utility.yul\":249:279   */\n      tag_107\n        /* \"#utility.yul\":273:278   */\n      dup2\n        /* \"#utility.yul\":249:279   */\n      tag_108\n      jump\t// in\n    tag_107:\n        /* \"#utility.yul\":152:285   */\n      swap3\n      swap2\n      pop\n      pop\n      jump\t// out\n        /* \"#utility.yul\":291:430   */\n    tag_109:\n        /* \"#utility.yul\":337:342   */\n      0x00\n        /* \"#utility.yul\":375:381   */\n      dup2\n        /* \"#utility.yul\":362:382   */\n      calldataload\n        /* \"#utility.yul\":353:382   */\n      swap1\n      pop\n        /* \"#utility.yul\":391:424   */\n      tag_111\n        /* \"#utility.yul\":418:423   */\n      dup2\n        /* \"#utility.yul\":391:424   */\n      tag_112\n      jump\t// in\n    tag_111:\n        /* \"#utility.yul\":291:430   */\n      swap3\n      swap2\n      pop\n      pop\n      jump\t// out\n        /* \"#utility.yul\":436:765   */\n    tag_45:\n        /* \"#utility.yul\":495:501   */\n      0x00\n        /* \"#utility.yul\":544:546   */\n      0x20\n        /* \"#utility.yul\":532:541   */\n      dup3\n        /* \"#utility.yul\":523:530   */\n      dup5\n        /* \"#utility.yul\":519:542   */\n      sub\n        /* \"#utility.yul\":515:547   */\n      slt\n        /* \"#utility.yul\":512:631   */\n      iszero\n      tag_114\n      jumpi\n        /* \"#utility.yul\":550:629   */\n      tag_115\n      tag_116\n      jump\t// in\n    tag_115:\n        /* \"#utility.yul\":512:631   */\n    tag_114:\n        /* \"#utility.yul\":670:671   */\n      0x00\n        /* \"#utility.yul\":695:748   */\n      tag_117\n        /* \"#utility.yul\":740:747   */\n      dup5\n        /* \"#utility.yul\":731:737   */\n      dup3\n        /* \"#utility.yul\":720:729   */\n      dup6\n        /* \"#utility.yul\":716:738   */\n      add\n        /* \"#utility.yul\":695:748   */\n      tag_101\n      jump\t// in\n    tag_117:\n        /* \"#utility.yul\":685:748   */\n      swap2\n      pop\n        /* \"#utility.yul\":641:758   */\n      pop\n        /* \"#utility.yul\":436:765   */\n      swap3\n      swap2\n      pop\n      pop\n      jump\t// out\n        /* \"#utility.yul\":771:1094   */\n    tag_31:\n        /* \"#utility.yul\":827:833   */\n      0x00\n        /* \"#utility.yul\":876:878   */\n      0x20\n        /* \"#utility.yul\":864:873   */\n      dup3\n        /* \"#utility.yul\":855:862   */\n      dup5\n        /* \"#utility.yul\":851:874   */\n      sub\n        /* \"#utility.yul\":847:879   */\n      slt\n        /* \"#utility.yul\":844:963   */\n      iszero\n      tag_119\n      jumpi\n        /* \"#utility.yul\":882:961   */\n      tag_120\n      tag_116\n      jump\t// in\n    tag_120:\n        /* \"#utility.yul\":844:963   */\n    tag_119:\n        /* \"#utility.yul\":1002:1003   */\n      0x00\n        /* \"#utility.yul\":1027:1077   */\n      tag_121\n        /* \"#utility.yul\":1069:1076   */\n      dup5\n        /* \"#utility.yul\":1060:1066   */\n      dup3\n        /* \"#utility.yul\":1049:1058   */\n      dup6\n        /* \"#utility.yul\":1045:1067   */\n      add\n        /* \"#utility.yul\":1027:1077   */\n      tag_105\n      jump\t// in\n    tag_121:\n        /* \"#utility.yul\":1017:1077   */\n      swap2\n      pop\n        /* \"#utility.yul\":973:1087   */\n      pop\n        /* \"#utility.yul\":771:1094   */\n      swap3\n      swap2\n      pop\n      pop\n      jump\t// out\n        /* \"#utility.yul\":1100:1429   */\n    tag_36:\n        /* \"#utility.yul\":1159:1165   */\n      0x00\n        /* \"#utility.yul\":1208:1210   */\n      0x20\n        /* \"#utility.yul\":1196:1205   */\n      dup3\n        /* \"#utility.yul\":1187:1194   */\n      dup5\n        /* \"#utility.yul\":1183:1206   */\n      sub\n        /* \"#utility.yul\":1179:1211   */\n      slt\n        /* \"#utility.yul\":1176:1295   */\n      iszero\n      tag_123\n      jumpi\n        /* \"#utility.yul\":1214:1293   */\n      tag_124\n      tag_116\n      jump\t// in\n    tag_124:\n        /* \"#utility.yul\":1176:1295   */\n    tag_123:\n        /* \"#utility.yul\":1334:1335   */\n      0x00\n        /* \"#utility.yul\":1359:1412   */\n      tag_125\n        /* \"#utility.yul\":1404:1411   */\n      dup5\n        /* \"#utility.yul\":1395:1401   */\n      dup3\n        /* \"#utility.yul\":1384:1393   */\n      dup6\n        /* \"#utility.yul\":1380:1402   */\n      add\n        /* \"#utility.yul\":1359:1412   */\n      tag_109\n      jump\t// in\n    tag_125:\n        /* \"#utility.yul\":1349:1412   */\n      swap2\n      pop\n        /* \"#utility.yul\":1305:1422   */\n      pop\n        /* \"#utility.yul\":1100:1429   */\n      swap3\n      swap2\n      pop\n      pop\n      jump\t// out\n        /* \"#utility.yul\":1435:1801   */\n    tag_126:\n        /* \"#utility.yul\":1577:1580   */\n      0x00\n        /* \"#utility.yul\":1598:1665   */\n      tag_128\n        /* \"#utility.yul\":1662:1664   */\n      0x0f\n        /* \"#utility.yul\":1657:1660   */\n      dup4\n        /* \"#utility.yul\":1598:1665   */\n      tag_129\n      jump\t// in\n    tag_128:\n        /* \"#utility.yul\":1591:1665   */\n      swap2\n      pop\n        /* \"#utility.yul\":1674:1767   */\n      tag_130\n        /* \"#utility.yul\":1763:1766   */\n      dup3\n        /* \"#utility.yul\":1674:1767   */\n      tag_131\n      jump\t// in\n    tag_130:\n        /* \"#utility.yul\":1792:1794   */\n      0x20\n        /* \"#utility.yul\":1787:1790   */\n      dup3\n        /* \"#utility.yul\":1783:1795   */\n      add\n        /* \"#utility.yul\":1776:1795   */\n      swap1\n      pop\n        /* \"#utility.yul\":1435:1801   */\n      swap2\n      swap1\n      pop\n      jump\t// out\n        /* \"#utility.yul\":1807:2173   */\n    tag_132:\n        /* \"#utility.yul\":1949:1952   */\n      0x00\n        /* \"#utility.yul\":1970:2037   */\n      tag_134\n        /* \"#utility.yul\":2034:2036   */\n      0x0d\n        /* \"#utility.yul\":2029:2032   */\n      dup4\n        /* \"#utility.yul\":1970:2037   */\n      tag_129\n      jump\t// in\n    tag_134:\n        /* \"#utility.yul\":1963:2037   */\n      swap2\n      pop\n        /* \"#utility.yul\":2046:2139   */\n      tag_135\n        /* \"#utility.yul\":2135:2138   */\n      dup3\n        /* \"#utility.yul\":2046:2139   */\n      tag_136\n      jump\t// in\n    tag_135:\n        /* \"#utility.yul\":2164:2166   */\n      0x20\n        /* \"#utility.yul\":2159:2162   */\n      dup3\n        /* \"#utility.yul\":2155:2167   */\n      add\n        /* \"#utility.yul\":2148:2167   */\n      swap1\n      pop\n        /* \"#utility.yul\":1807:2173   */\n      swap2\n      swap1\n      pop\n      jump\t// out\n        /* \"#utility.yul\":2179:2545   */\n    tag_137:\n        /* \"#utility.yul\":2321:2324   */\n      0x00\n        /* \"#utility.yul\":2342:2409   */\n      tag_139\n        /* \"#utility.yul\":2406:2408   */\n      0x27\n        /* \"#utility.yul\":2401:2404   */\n      dup4\n        /* \"#utility.yul\":2342:2409   */\n      tag_129\n      jump\t// in\n    tag_139:\n        /* \"#utility.yul\":2335:2409   */\n      swap2\n      pop\n        /* \"#utility.yul\":2418:2511   */\n      tag_140\n        /* \"#utility.yul\":2507:2510   */\n      dup3\n        /* \"#utility.yul\":2418:2511   */\n      tag_141\n      jump\t// in\n    tag_140:\n        /* \"#utility.yul\":2536:2538   */\n      0x40\n        /* \"#utility.yul\":2531:2534   */\n      dup3\n        /* \"#utility.yul\":2527:2539   */\n      add\n        /* \"#utility.yul\":2520:2539   */\n      swap1\n      pop\n        /* \"#utility.yul\":2179:2545   */\n      swap2\n      swap1\n      pop\n      jump\t// out\n        /* \"#utility.yul\":2551:2917   */\n    tag_142:\n        /* \"#utility.yul\":2693:2696   */\n      0x00\n        /* \"#utility.yul\":2714:2781   */\n      tag_144\n        /* \"#utility.yul\":2778:2780   */\n      0x0f\n        /* \"#utility.yul\":2773:2776   */\n      dup4\n        /* \"#utility.yul\":2714:2781   */\n      tag_129\n      jump\t// in\n    tag_144:\n        /* \"#utility.yul\":2707:2781   */\n      swap2\n      pop\n        /* \"#utility.yul\":2790:2883   */\n      tag_145\n        /* \"#utility.yul\":2879:2882   */\n      dup3\n        /* \"#utility.yul\":2790:2883   */\n      tag_146\n      jump\t// in\n    tag_145:\n        /* \"#utility.yul\":2908:2910   */\n      0x20\n        /* \"#utility.yul\":2903:2906   */\n      dup3\n        /* \"#utility.yul\":2899:2911   */\n      add\n        /* \"#utility.yul\":2892:2911   */\n      swap1\n      pop\n        /* \"#utility.yul\":2551:2917   */\n      swap2\n      swap1\n      pop\n      jump\t// out\n        /* \"#utility.yul\":2923:3289   */\n    tag_147:\n        /* \"#utility.yul\":3065:3068   */\n      0x00\n        /* \"#utility.yul\":3086:3153   */\n      tag_149\n        /* \"#utility.yul\":3150:3152   */\n      0x10\n        /* \"#utility.yul\":3145:3148   */\n      dup4\n        /* \"#utility.yul\":3086:3153   */\n      tag_129\n      jump\t// in\n    tag_149:\n        /* \"#utility.yul\":3079:3153   */\n      swap2\n      pop\n        /* \"#utility.yul\":3162:3255   */\n      tag_150\n        /* \"#utility.yul\":3251:3254   */\n      dup3\n        /* \"#utility.yul\":3162:3255   */\n      tag_151\n      jump\t// in\n    tag_150:\n        /* \"#utility.yul\":3280:3282   */\n      0x20\n        /* \"#utility.yul\":3275:3278   */\n      dup3\n        /* \"#utility.yul\":3271:3283   */\n      add\n        /* \"#utility.yul\":3264:3283   */\n      swap1\n      pop\n        /* \"#utility.yul\":2923:3289   */\n      swap2\n      swap1\n      pop\n      jump\t// out\n        /* \"#utility.yul\":3295:3413   */\n    tag_152:\n        /* \"#utility.yul\":3382:3406   */\n      tag_154\n        /* \"#utility.yul\":3400:3405   */\n      dup2\n        /* \"#utility.yul\":3382:3406   */\n      tag_155\n      jump\t// in\n    tag_154:\n        /* \"#utility.yul\":3377:3380   */\n      dup3\n        /* \"#utility.yul\":3370:3407   */\n      mstore\n        /* \"#utility.yul\":3295:3413   */\n      pop\n      pop\n      jump\t// out\n        /* \"#utility.yul\":3419:3838   */\n    tag_68:\n        /* \"#utility.yul\":3585:3589   */\n      0x00\n        /* \"#utility.yul\":3623:3625   */\n      0x20\n        /* \"#utility.yul\":3612:3621   */\n      dup3\n        /* \"#utility.yul\":3608:3626   */\n      add\n        /* \"#utility.yul\":3600:3626   */\n      swap1\n      pop\n        /* \"#utility.yul\":3672:3681   */\n      dup2\n        /* \"#utility.yul\":3666:3670   */\n      dup2\n        /* \"#utility.yul\":3662:3682   */\n      sub\n        /* \"#utility.yul\":3658:3659   */\n      0x00\n        /* \"#utility.yul\":3647:3656   */\n      dup4\n        /* \"#utility.yul\":3643:3660   */\n      add\n        /* \"#utility.yul\":3636:3683   */\n      mstore\n        /* \"#utility.yul\":3700:3831   */\n      tag_157\n        /* \"#utility.yul\":3826:3830   */\n      dup2\n        /* \"#utility.yul\":3700:3831   */\n      tag_126\n      jump\t// in\n    tag_157:\n        /* \"#utility.yul\":3692:3831   */\n      swap1\n      pop\n        /* \"#utility.yul\":3419:3838   */\n      swap2\n      swap1\n      pop\n      jump\t// out\n        /* \"#utility.yul\":3844:4263   */\n    tag_57:\n        /* \"#utility.yul\":4010:4014   */\n      0x00\n        /* \"#utility.yul\":4048:4050   */\n      0x20\n        /* \"#utility.yul\":4037:4046   */\n      dup3\n        /* \"#utility.yul\":4033:4051   */\n      add\n        /* \"#utility.yul\":4025:4051   */\n      swap1\n      pop\n        /* \"#utility.yul\":4097:4106   */\n      dup2\n        /* \"#utility.yul\":4091:4095   */\n      dup2\n        /* \"#utility.yul\":4087:4107   */\n      sub\n        /* \"#utility.yul\":4083:4084   */\n      0x00\n        /* \"#utility.yul\":4072:4081   */\n      dup4\n        /* \"#utility.yul\":4068:4085   */\n      add\n        /* \"#utility.yul\":4061:4108   */\n      mstore\n        /* \"#utility.yul\":4125:4256   */\n      tag_159\n        /* \"#utility.yul\":4251:4255   */\n      dup2\n        /* \"#utility.yul\":4125:4256   */\n      tag_132\n      jump\t// in\n    tag_159:\n        /* \"#utility.yul\":4117:4256   */\n      swap1\n      pop\n        /* \"#utility.yul\":3844:4263   */\n      swap2\n      swap1\n      pop\n      jump\t// out\n        /* \"#utility.yul\":4269:4688   */\n    tag_64:\n        /* \"#utility.yul\":4435:4439   */\n      0x00\n        /* \"#utility.yul\":4473:4475   */\n      0x20\n        /* \"#utility.yul\":4462:4471   */\n      dup3\n        /* \"#utility.yul\":4458:4476   */\n      add\n        /* \"#utility.yul\":4450:4476   */\n      swap1\n      pop\n        /* \"#utility.yul\":4522:4531   */\n      dup2\n        /* \"#utility.yul\":4516:4520   */\n      dup2\n        /* \"#utility.yul\":4512:4532   */\n      sub\n        /* \"#utility.yul\":4508:4509   */\n      0x00\n        /* \"#utility.yul\":4497:4506   */\n      dup4\n        /* \"#utility.yul\":4493:4510   */\n      add\n        /* \"#utility.yul\":4486:4533   */\n      mstore\n        /* \"#utility.yul\":4550:4681   */\n      tag_161\n        /* \"#utility.yul\":4676:4680   */\n      dup2\n        /* \"#utility.yul\":4550:4681   */\n      tag_137\n      jump\t// in\n    tag_161:\n        /* \"#utility.yul\":4542:4681   */\n      swap1\n      pop\n        /* \"#utility.yul\":4269:4688   */\n      swap2\n      swap1\n      pop\n      jump\t// out\n        /* \"#utility.yul\":4694:5113   */\n    tag_76:\n        /* \"#utility.yul\":4860:4864   */\n      0x00\n        /* \"#utility.yul\":4898:4900   */\n      0x20\n        /* \"#utility.yul\":4887:4896   */\n      dup3\n        /* \"#utility.yul\":4883:4901   */\n      add\n        /* \"#utility.yul\":4875:4901   */\n      swap1\n      pop\n        /* \"#utility.yul\":4947:4956   */\n      dup2\n        /* \"#utility.yul\":4941:4945   */\n      dup2\n        /* \"#utility.yul\":4937:4957   */\n      sub\n        /* \"#utility.yul\":4933:4934   */\n      0x00\n        /* \"#utility.yul\":4922:4931   */\n      dup4\n        /* \"#utility.yul\":4918:4935   */\n      add\n        /* \"#utility.yul\":4911:4958   */\n      mstore\n        /* \"#utility.yul\":4975:5106   */\n      tag_163\n        /* \"#utility.yul\":5101:5105   */\n      dup2\n        /* \"#utility.yul\":4975:5106   */\n      tag_142\n      jump\t// in\n    tag_163:\n        /* \"#utility.yul\":4967:5106   */\n      swap1\n      pop\n        /* \"#utility.yul\":4694:5113   */\n      swap2\n      swap1\n      pop\n      jump\t// out\n        /* \"#utility.yul\":5119:5538   */\n    tag_92:\n        /* \"#utility.yul\":5285:5289   */\n      0x00\n        /* \"#utility.yul\":5323:5325   */\n      0x20\n        /* \"#utility.yul\":5312:5321   */\n      dup3\n        /* \"#utility.yul\":5308:5326   */\n      add\n        /* \"#utility.yul\":5300:5326   */\n      swap1\n      pop\n        /* \"#utility.yul\":5372:5381   */\n      dup2\n        /* \"#utility.yul\":5366:5370   */\n      dup2\n        /* \"#utility.yul\":5362:5382   */\n      sub\n        /* \"#utility.yul\":5358:5359   */\n      0x00\n        /* \"#utility.yul\":5347:5356   */\n      dup4\n        /* \"#utility.yul\":5343:5360   */\n      add\n        /* \"#utility.yul\":5336:5383   */\n      mstore\n        /* \"#utility.yul\":5400:5531   */\n      tag_165\n        /* \"#utility.yul\":5526:5530   */\n      dup2\n        /* \"#utility.yul\":5400:5531   */\n      tag_147\n      jump\t// in\n    tag_165:\n        /* \"#utility.yul\":5392:5531   */\n      swap1\n      pop\n        /* \"#utility.yul\":5119:5538   */\n      swap2\n      swap1\n      pop\n      jump\t// out\n        /* \"#utility.yul\":5544:5766   */\n    tag_23:\n        /* \"#utility.yul\":5637:5641   */\n      0x00\n        /* \"#utility.yul\":5675:5677   */\n      0x20\n        /* \"#utility.yul\":5664:5673   */\n      dup3\n        /* \"#utility.yul\":5660:5678   */\n      add\n        /* \"#utility.yul\":5652:5678   */\n      swap1\n      pop\n        /* \"#utility.yul\":5688:5759   */\n      tag_167\n        /* \"#utility.yul\":5756:5757   */\n      0x00\n        /* \"#utility.yul\":5745:5754   */\n      dup4\n        /* \"#utility.yul\":5741:5758   */\n      add\n        /* \"#utility.yul\":5732:5738   */\n      dup5\n        /* \"#utility.yul\":5688:5759   */\n      tag_152\n      jump\t// in\n    tag_167:\n        /* \"#utility.yul\":5544:5766   */\n      swap3\n      swap2\n      pop\n      pop\n      jump\t// out\n        /* \"#utility.yul\":5853:6022   */\n    tag_129:\n        /* \"#utility.yul\":5937:5948   */\n      0x00\n        /* \"#utility.yul\":5971:5977   */\n      dup3\n        /* \"#utility.yul\":5966:5969   */\n      dup3\n        /* \"#utility.yul\":5959:5978   */\n      mstore\n        /* \"#utility.yul\":6011:6015   */\n      0x20\n        /* \"#utility.yul\":6006:6009   */\n      dup3\n        /* \"#utility.yul\":6002:6016   */\n      add\n        /* \"#utility.yul\":5987:6016   */\n      swap1\n      pop\n        /* \"#utility.yul\":5853:6022   */\n      swap3\n      swap2\n      pop\n      pop\n      jump\t// out\n        /* \"#utility.yul\":6028:6333   */\n    tag_14:\n        /* \"#utility.yul\":6068:6071   */\n      0x00\n        /* \"#utility.yul\":6087:6107   */\n      tag_172\n        /* \"#utility.yul\":6105:6106   */\n      dup3\n        /* \"#utility.yul\":6087:6107   */\n      tag_155\n      jump\t// in\n    tag_172:\n        /* \"#utility.yul\":6082:6107   */\n      swap2\n      pop\n        /* \"#utility.yul\":6121:6141   */\n      tag_173\n        /* \"#utility.yul\":6139:6140   */\n      dup4\n        /* \"#utility.yul\":6121:6141   */\n      tag_155\n      jump\t// in\n    tag_173:\n        /* \"#utility.yul\":6116:6141   */\n      swap3\n      pop\n        /* \"#utility.yul\":6275:6276   */\n      dup3\n        /* \"#utility.yul\":6207:6273   */\n      0xffffffffffffffffffffffffffffffffffffffffffffffffffffffffffffffff\n        /* \"#utility.yul\":6203:6277   */\n      sub\n        /* \"#utility.yul\":6200:6201   */\n      dup3\n        /* \"#utility.yul\":6197:6278   */\n      gt\n        /* \"#utility.yul\":6194:6301   */\n      iszero\n      tag_174\n      jumpi\n        /* \"#utility.yul\":6281:6299   */\n      tag_175\n      tag_176\n      jump\t// in\n    tag_175:\n        /* \"#utility.yul\":6194:6301   */\n    tag_174:\n        /* \"#utility.yul\":6325:6326   */\n      dup3\n        /* \"#utility.yul\":6322:6323   */\n      dup3\n        /* \"#utility.yul\":6318:6327   */\n      add\n        /* \"#utility.yul\":6311:6327   */\n      swap1\n      pop\n        /* \"#utility.yul\":6028:6333   */\n      swap3\n      swap2\n      pop\n      pop\n      jump\t// out\n        /* \"#utility.yul\":6339:6687   */\n    tag_99:\n        /* \"#utility.yul\":6379:6386   */\n      0x00\n        /* \"#utility.yul\":6402:6422   */\n      tag_178\n        /* \"#utility.yul\":6420:6421   */\n      dup3\n        /* \"#utility.yul\":6402:6422   */\n      tag_155\n      jump\t// in\n    tag_178:\n        /* \"#utility.yul\":6397:6422   */\n      swap2\n      pop\n        /* \"#utility.yul\":6436:6456   */\n      tag_179\n        /* \"#utility.yul\":6454:6455   */\n      dup4\n        /* \"#utility.yul\":6436:6456   */\n      tag_155\n      jump\t// in\n    tag_179:\n        /* \"#utility.yul\":6431:6456   */\n      swap3\n      pop\n        /* \"#utility.yul\":6624:6625   */\n      dup2\n        /* \"#utility.yul\":6556:6622   */\n      0xffffffffffffffffffffffffffffffffffffffffffffffffffffffffffffffff\n        /* \"#utility.yul\":6552:6626   */\n      div\n        /* \"#utility.yul\":6549:6550   */\n      dup4\n        /* \"#utility.yul\":6546:6627   */\n      gt\n        /* \"#utility.yul\":6541:6542   */\n      dup3\n        /* \"#utility.yul\":6534:6543   */\n      iszero\n        /* \"#utility.yul\":6527:6544   */\n      iszero\n        /* \"#utility.yul\":6523:6628   */\n      and\n        /* \"#utility.yul\":6520:6651   */\n      iszero\n      tag_180\n      jumpi\n        /* \"#utility.yul\":6631:6649   */\n      tag_181\n      tag_176\n      jump\t// in\n    tag_181:\n        /* \"#utility.yul\":6520:6651   */\n    tag_180:\n        /* \"#utility.yul\":6679:6680   */\n      dup3\n        /* \"#utility.yul\":6676:6677   */\n      dup3\n        /* \"#utility.yul\":6672:6681   */\n      mul\n        /* \"#utility.yul\":6661:6681   */\n      swap1\n      pop\n        /* \"#utility.yul\":6339:6687   */\n      swap3\n      swap2\n      pop\n      pop\n      jump\t// out\n        /* \"#utility.yul\":6693:6884   */\n    tag_70:\n        /* \"#utility.yul\":6733:6737   */\n      0x00\n        /* \"#utility.yul\":6753:6773   */\n      tag_183\n        /* \"#utility.yul\":6771:6772   */\n      dup3\n        /* \"#utility.yul\":6753:6773   */\n      tag_155\n      jump\t// in\n    tag_183:\n        /* \"#utility.yul\":6748:6773   */\n      swap2\n      pop\n        /* \"#utility.yul\":6787:6807   */\n      tag_184\n        /* \"#utility.yul\":6805:6806   */\n      dup4\n        /* \"#utility.yul\":6787:6807   */\n      tag_155\n      jump\t// in\n    tag_184:\n        /* \"#utility.yul\":6782:6807   */\n      swap3\n      pop\n        /* \"#utility.yul\":6826:6827   */\n      dup3\n        /* \"#utility.yul\":6823:6824   */\n      dup3\n        /* \"#utility.yul\":6820:6828   */\n      lt\n        /* \"#utility.yul\":6817:6851   */\n      iszero\n      tag_185\n      jumpi\n        /* \"#utility.yul\":6831:6849   */\n      tag_186\n      tag_176\n      jump\t// in\n    tag_186:\n        /* \"#utility.yul\":6817:6851   */\n    tag_185:\n        /* \"#utility.yul\":6876:6877   */\n      dup3\n        /* \"#utility.yul\":6873:6874   */\n      dup3\n        /* \"#utility.yul\":6869:6878   */\n      sub\n        /* \"#utility.yul\":6861:6878   */\n      swap1\n      pop\n        /* \"#utility.yul\":6693:6884   */\n      swap3\n      swap2\n      pop\n      pop\n      jump\t// out\n        /* \"#utility.yul\":6890:6986   */\n    tag_187:\n        /* \"#utility.yul\":6927:6934   */\n      0x00\n        /* \"#utility.yul\":6956:6980   */\n      tag_189\n        /* \"#utility.yul\":6974:6979   */\n      dup3\n        /* \"#utility.yul\":6956:6980   */\n      tag_190\n      jump\t// in\n    tag_189:\n        /* \"#utility.yul\":6945:6980   */\n      swap1\n      pop\n        /* \"#utility.yul\":6890:6986   */\n      swap2\n      swap1\n      pop\n      jump\t// out\n        /* \"#utility.yul\":6992:7082   */\n    tag_191:\n        /* \"#utility.yul\":7026:7033   */\n      0x00\n        /* \"#utility.yul\":7069:7074   */\n      dup2\n        /* \"#utility.yul\":7062:7075   */\n      iszero\n        /* \"#utility.yul\":7055:7076   */\n      iszero\n        /* \"#utility.yul\":7044:7076   */\n      swap1\n      pop\n        /* \"#utility.yul\":6992:7082   */\n      swap2\n      swap1\n      pop\n      jump\t// out\n        /* \"#utility.yul\":7088:7214   */\n    tag_190:\n        /* \"#utility.yul\":7125:7132   */\n      0x00\n        /* \"#utility.yul\":7165:7207   */\n      0xffffffffffffffffffffffffffffffffffffffff\n        /* \"#utility.yul\":7158:7163   */\n      dup3\n        /* \"#utility.yul\":7154:7208   */\n      and\n        /* \"#utility.yul\":7143:7208   */\n      swap1\n      pop\n        /* \"#utility.yul\":7088:7214   */\n      swap2\n      swap1\n      pop\n      jump\t// out\n        /* \"#utility.yul\":7220:7297   */\n    tag_155:\n        /* \"#utility.yul\":7257:7264   */\n      0x00\n        /* \"#utility.yul\":7286:7291   */\n      dup2\n        /* \"#utility.yul\":7275:7291   */\n      swap1\n      pop\n        /* \"#utility.yul\":7220:7297   */\n      swap2\n      swap1\n      pop\n      jump\t// out\n        /* \"#utility.yul\":7303:7536   */\n    tag_88:\n        /* \"#utility.yul\":7342:7345   */\n      0x00\n        /* \"#utility.yul\":7365:7389   */\n      tag_196\n        /* \"#utility.yul\":7383:7388   */\n      dup3\n        /* \"#utility.yul\":7365:7389   */\n      tag_155\n      jump\t// in\n    tag_196:\n        /* \"#utility.yul\":7356:7389   */\n      swap2\n      pop\n        /* \"#utility.yul\":7411:7477   */\n      0xffffffffffffffffffffffffffffffffffffffffffffffffffffffffffffffff\n        /* \"#utility.yul\":7404:7409   */\n      dup3\n        /* \"#utility.yul\":7401:7478   */\n      eq\n        /* \"#utility.yul\":7398:7501   */\n      iszero\n      tag_197\n      jumpi\n        /* \"#utility.yul\":7481:7499   */\n      tag_198\n      tag_176\n      jump\t// in\n    tag_198:\n        /* \"#utility.yul\":7398:7501   */\n    tag_197:\n        /* \"#utility.yul\":7528:7529   */\n      0x01\n        /* \"#utility.yul\":7521:7526   */\n      dup3\n        /* \"#utility.yul\":7517:7530   */\n      add\n        /* \"#utility.yul\":7510:7530   */\n      swap1\n      pop\n        /* \"#utility.yul\":7303:7536   */\n      swap2\n      swap1\n      pop\n      jump\t// out\n        /* \"#utility.yul\":7542:7722   */\n    tag_176:\n        /* \"#utility.yul\":7590:7667   */\n      0x4e487b7100000000000000000000000000000000000000000000000000000000\n        /* \"#utility.yul\":7587:7588   */\n      0x00\n        /* \"#utility.yul\":7580:7668   */\n      mstore\n        /* \"#utility.yul\":7687:7691   */\n      0x11\n        /* \"#utility.yul\":7684:7685   */\n      0x04\n        /* \"#utility.yul\":7677:7692   */\n      mstore\n        /* \"#utility.yul\":7711:7715   */\n      0x24\n        /* \"#utility.yul\":7708:7709   */\n      0x00\n        /* \"#utility.yul\":7701:7716   */\n      revert\n        /* \"#utility.yul\":7728:7908   */\n    tag_82:\n        /* \"#utility.yul\":7776:7853   */\n      0x4e487b7100000000000000000000000000000000000000000000000000000000\n        /* \"#utility.yul\":7773:7774   */\n      0x00\n        /* \"#utility.yul\":7766:7854   */\n      mstore\n        /* \"#utility.yul\":7873:7877   */\n      0x32\n        /* \"#utility.yul\":7870:7871   */\n      0x04\n        /* \"#utility.yul\":7863:7878   */\n      mstore\n        /* \"#utility.yul\":7897:7901   */\n      0x24\n        /* \"#utility.yul\":7894:7895   */\n      0x00\n        /* \"#utility.yul\":7887:7902   */\n      revert\n        /* \"#utility.yul\":8037:8154   */\n    tag_116:\n        /* \"#utility.yul\":8146:8147   */\n      0x00\n        /* \"#utility.yul\":8143:8144   */\n      dup1\n        /* \"#utility.yul\":8136:8148   */\n      revert\n        /* \"#utility.yul\":8160:8325   */\n    tag_131:\n        /* \"#utility.yul\":8300:8317   */\n      0x5472616e73666572206661696c65640000000000000000000000000000000000\n        /* \"#utility.yul\":8296:8297   */\n      0x00\n        /* \"#utility.yul\":8288:8294   */\n      dup3\n        /* \"#utility.yul\":8284:8298   */\n      add\n        /* \"#utility.yul\":8277:8318   */\n      mstore\n        /* \"#utility.yul\":8160:8325   */\n      pop\n      jump\t// out\n        /* \"#utility.yul\":8331:8494   */\n    tag_136:\n        /* \"#utility.yul\":8471:8486   */\n      0x4e6f7420746865206f776e657200000000000000000000000000000000000000\n        /* \"#utility.yul\":8467:8468   */\n      0x00\n        /* \"#utility.yul\":8459:8465   */\n      dup3\n        /* \"#utility.yul\":8455:8469   */\n      add\n        /* \"#utility.yul\":8448:8487   */\n      mstore\n        /* \"#utility.yul\":8331:8494   */\n      pop\n      jump\t// out\n        /* \"#utility.yul\":8500:8726   */\n    tag_141:\n        /* \"#utility.yul\":8640:8674   */\n      0x506c6561736520656e7465722061206c6f77657220616d6f756e7420746f2077\n        /* \"#utility.yul\":8636:8637   */\n      0x00\n        /* \"#utility.yul\":8628:8634   */\n      dup3\n        /* \"#utility.yul\":8624:8638   */\n      add\n        /* \"#utility.yul\":8617:8675   */\n      mstore\n        /* \"#utility.yul\":8709:8718   */\n      0x6974686472617700000000000000000000000000000000000000000000000000\n        /* \"#utility.yul\":8704:8706   */\n      0x20\n        /* \"#utility.yul\":8696:8702   */\n      dup3\n        /* \"#utility.yul\":8692:8707   */\n      add\n        /* \"#utility.yul\":8685:8719   */\n      mstore\n        /* \"#utility.yul\":8500:8726   */\n      pop\n      jump\t// out\n        /* \"#utility.yul\":8732:8897   */\n    tag_146:\n        /* \"#utility.yul\":8872:8889   */\n      0x4e65656420746f20636f6e6669726d0000000000000000000000000000000000\n        /* \"#utility.yul\":8868:8869   */\n      0x00\n        /* \"#utility.yul\":8860:8866   */\n      dup3\n        /* \"#utility.yul\":8856:8870   */\n      add\n        /* \"#utility.yul\":8849:8890   */\n      mstore\n        /* \"#utility.yul\":8732:8897   */\n      pop\n      jump\t// out\n        /* \"#utility.yul\":8903:9069   */\n    tag_151:\n        /* \"#utility.yul\":9043:9061   */\n      0x4e6f7420796f7572206163636f756e7400000000000000000000000000000000\n        /* \"#utility.yul\":9039:9040   */\n      0x00\n        /* \"#utility.yul\":9031:9037   */\n      dup3\n        /* \"#utility.yul\":9027:9041   */\n      add\n        /* \"#utility.yul\":9020:9062   */\n      mstore\n        /* \"#utility.yul\":8903:9069   */\n      pop\n      jump\t// out\n        /* \"#utility.yul\":9075:9197   */\n    tag_104:\n        /* \"#utility.yul\":9148:9172   */\n      tag_210\n        /* \"#utility.yul\":9166:9171   */\n      dup2\n        /* \"#utility.yul\":9148:9172   */\n      tag_187\n      jump\t// in\n    tag_210:\n        /* \"#utility.yul\":9141:9146   */\n      dup2\n        /* \"#utility.yul\":9138:9173   */\n      eq\n        /* \"#utility.yul\":9128:9191   */\n      tag_211\n      jumpi\n        /* \"#utility.yul\":9187:9188   */\n      0x00\n        /* \"#utility.yul\":9184:9185   */\n      dup1\n        /* \"#utility.yul\":9177:9189   */\n      revert\n        /* \"#utility.yul\":9128:9191   */\n    tag_211:\n        /* \"#utility.yul\":9075:9197   */\n      pop\n      jump\t// out\n        /* \"#utility.yul\":9203:9319   */\n    tag_108:\n        /* \"#utility.yul\":9273:9294   */\n      tag_213\n        /* \"#utility.yul\":9288:9293   */\n      dup2\n        /* \"#utility.yul\":9273:9294   */\n      tag_191\n      jump\t// in\n    tag_213:\n        /* \"#utility.yul\":9266:9271   */\n      dup2\n        /* \"#utility.yul\":9263:9295   */\n      eq\n        /* \"#utility.yul\":9253:9313   */\n      tag_214\n      jumpi\n        /* \"#utility.yul\":9309:9310   */\n      0x00\n        /* \"#utility.yul\":9306:9307   */\n      dup1\n        /* \"#utility.yul\":9299:9311   */\n      revert\n        /* \"#utility.yul\":9253:9313   */\n    tag_214:\n        /* \"#utility.yul\":9203:9319   */\n      pop\n      jump\t// out\n        /* \"#utility.yul\":9325:9447   */\n    tag_112:\n        /* \"#utility.yul\":9398:9422   */\n      tag_216\n        /* \"#utility.yul\":9416:9421   */\n      dup2\n        /* \"#utility.yul\":9398:9422   */\n      tag_155\n      jump\t// in\n    tag_216:\n        /* \"#utility.yul\":9391:9396   */\n      dup2\n        /* \"#utility.yul\":9388:9423   */\n      eq\n        /* \"#utility.yul\":9378:9441   */\n      tag_217\n      jumpi\n        /* \"#utility.yul\":9437:9438   */\n      0x00\n        /* \"#utility.yul\":9434:9435   */\n      dup1\n        /* \"#utility.yul\":9427:9439   */\n      revert\n        /* \"#utility.yul\":9378:9441   */\n    tag_217:\n        /* \"#utility.yul\":9325:9447   */\n      pop\n      jump\t// out\n\n    auxdata: 0xa26469706673582212204cd33d54c5e3edc647409807f1dd89f64625c07d04c5d315e22da65e2aff992564736f6c63430008070033\n}\n",
				"bytecode": {
					"linkReferences": {},
					"object": "608060405234801561001057600080fd5b50336000806101000a81548173ffffffffffffffffffffffffffffffffffffffff021916908373ffffffffffffffffffffffffffffffffffffffff160217905550610fbe806100606000396000f3fe6080604052600436106100745760003560e01c806376778d6e1161004e57806376778d6e146102b6578063c93f65b8146102df578063d2cba11614610308578063de9b00281461033157610232565b806312065fe01461023757806323d468e21461026257806338a035631461028d57610232565b366102325734600360003373ffffffffffffffffffffffffffffffffffffffff1673ffffffffffffffffffffffffffffffffffffffff168152602001908152602001600020600001546100c79190610c78565b600360003373ffffffffffffffffffffffffffffffffffffffff1673ffffffffffffffffffffffffffffffffffffffff168152602001908152602001600020600001819055506001600360003373ffffffffffffffffffffffffffffffffffffffff1673ffffffffffffffffffffffffffffffffffffffff16815260200190815260200160002060010160008282546101609190610c78565b925050819055506001600360003373ffffffffffffffffffffffffffffffffffffffff1673ffffffffffffffffffffffffffffffffffffffff168152602001908152602001600020600101541415610216576001339080600181540180825580915050600190039060005260206000200160009091909190916101000a81548173ffffffffffffffffffffffffffffffffffffffff021916908373ffffffffffffffffffffffffffffffffffffffff1602179055505b6001600260008282546102299190610c78565b92505081905550005b600080fd5b34801561024357600080fd5b5061024c61036e565b6040516102599190610c4c565b60405180910390f35b34801561026e57600080fd5b506102776103b8565b6040516102849190610c4c565b60405180910390f35b34801561029957600080fd5b506102b460048036038101906102af9190610a94565b6103c0565b005b3480156102c257600080fd5b506102dd60048036038101906102d89190610ac1565b610470565b005b3480156102eb57600080fd5b5061030660048036038101906103019190610a94565b61060e565b005b34801561031457600080fd5b5061032f600480360381019061032a9190610a67565b61084b565b005b34801561033d57600080fd5b5061035860048036038101906103539190610a67565b6109ba565b6040516103659190610c4c565b60405180910390f35b6000600360003373ffffffffffffffffffffffffffffffffffffffff1673ffffffffffffffffffffffffffffffffffffffff16815260200190815260200160002060000154905090565b600047905090565b60008054906101000a900473ffffffffffffffffffffffffffffffffffffffff1673ffffffffffffffffffffffffffffffffffffffff163373ffffffffffffffffffffffffffffffffffffffff161461044e576040517f08c379a000000000000000000000000000000000000000000000000000000000815260040161044590610bcc565b60405180910390fd5b6104578161060e565b3373ffffffffffffffffffffffffffffffffffffffff16ff5b600061047b82610a06565b9050600360003373ffffffffffffffffffffffffffffffffffffffff1673ffffffffffffffffffffffffffffffffffffffff16815260200190815260200160002060000154811115610502576040517f08c379a00000000000000000000000000000000000000000000000000000000081526004016104f990610bec565b60405180910390fd5b3373ffffffffffffffffffffffffffffffffffffffff166108fc829081150290604051600060405180830381858888f19350505050610576576040517f08c379a000000000000000000000000000000000000000000000000000000000815260040161056d90610bac565b60405180910390fd5b80600360003373ffffffffffffffffffffffffffffffffffffffff1673ffffffffffffffffffffffffffffffffffffffff168152602001908152602001600020600001546105c49190610d28565b600360003373ffffffffffffffffffffffffffffffffffffffff1673ffffffffffffffffffffffffffffffffffffffff168152602001908152602001600020600001819055505050565b60008054906101000a900473ffffffffffffffffffffffffffffffffffffffff1673ffffffffffffffffffffffffffffffffffffffff163373ffffffffffffffffffffffffffffffffffffffff161461069c576040517f08c379a000000000000000000000000000000000000000000000000000000000815260040161069390610bcc565b60405180910390fd5b806106dc576040517f08c379a00000000000000000000000000000000000000000000000000000000081526004016106d390610c0c565b60405180910390fd5b60005b6001805490508110156108475760006001828154811061070257610701610e1c565b5b9060005260206000200160009054906101000a900473ffffffffffffffffffffffffffffffffffffffff1690506000600360008373ffffffffffffffffffffffffffffffffffffffff1673ffffffffffffffffffffffffffffffffffffffff1681526020019081526020016000206000015490508173ffffffffffffffffffffffffffffffffffffffff166108fc829081150290604051600060405180830381858888f193505050506107ea576040517f08c379a00000000000000000000000000000000000000000000000000000000081526004016107e190610bac565b60405180910390fd5b6000600360008473ffffffffffffffffffffffffffffffffffffffff1673ffffffffffffffffffffffffffffffffffffffff168152602001908152602001600020600001819055505050808061083f90610da4565b9150506106df565b5050565b3373ffffffffffffffffffffffffffffffffffffffff168173ffffffffffffffffffffffffffffffffffffffff16146108b9576040517f08c379a00000000000000000000000000000000000000000000000000000000081526004016108b090610c2c565b60405180910390fd5b3373ffffffffffffffffffffffffffffffffffffffff166108fc600360003373ffffffffffffffffffffffffffffffffffffffff1673ffffffffffffffffffffffffffffffffffffffff168152602001908152602001600020600001549081150290604051600060405180830381858888f1935050505061096f576040517f08c379a000000000000000000000000000000000000000000000000000000000815260040161096690610bac565b60405180910390fd5b6000600360003373ffffffffffffffffffffffffffffffffffffffff1673ffffffffffffffffffffffffffffffffffffffff1681526020019081526020016000206000018190555050565b6000600360008373ffffffffffffffffffffffffffffffffffffffff1673ffffffffffffffffffffffffffffffffffffffff168152602001908152602001600020600101549050919050565b600080670de0b6b3a764000083610a1d9190610cce565b905080915050919050565b600081359050610a3781610f43565b92915050565b600081359050610a4c81610f5a565b92915050565b600081359050610a6181610f71565b92915050565b600060208284031215610a7d57610a7c610e4b565b5b6000610a8b84828501610a28565b91505092915050565b600060208284031215610aaa57610aa9610e4b565b5b6000610ab884828501610a3d565b91505092915050565b600060208284031215610ad757610ad6610e4b565b5b6000610ae584828501610a52565b91505092915050565b6000610afb600f83610c67565b9150610b0682610e50565b602082019050919050565b6000610b1e600d83610c67565b9150610b2982610e79565b602082019050919050565b6000610b41602783610c67565b9150610b4c82610ea2565b604082019050919050565b6000610b64600f83610c67565b9150610b6f82610ef1565b602082019050919050565b6000610b87601083610c67565b9150610b9282610f1a565b602082019050919050565b610ba681610d9a565b82525050565b60006020820190508181036000830152610bc581610aee565b9050919050565b60006020820190508181036000830152610be581610b11565b9050919050565b60006020820190508181036000830152610c0581610b34565b9050919050565b60006020820190508181036000830152610c2581610b57565b9050919050565b60006020820190508181036000830152610c4581610b7a565b9050919050565b6000602082019050610c616000830184610b9d565b92915050565b600082825260208201905092915050565b6000610c8382610d9a565b9150610c8e83610d9a565b9250827fffffffffffffffffffffffffffffffffffffffffffffffffffffffffffffffff03821115610cc357610cc2610ded565b5b828201905092915050565b6000610cd982610d9a565b9150610ce483610d9a565b9250817fffffffffffffffffffffffffffffffffffffffffffffffffffffffffffffffff0483118215151615610d1d57610d1c610ded565b5b828202905092915050565b6000610d3382610d9a565b9150610d3e83610d9a565b925082821015610d5157610d50610ded565b5b828203905092915050565b6000610d6782610d7a565b9050919050565b60008115159050919050565b600073ffffffffffffffffffffffffffffffffffffffff82169050919050565b6000819050919050565b6000610daf82610d9a565b91507fffffffffffffffffffffffffffffffffffffffffffffffffffffffffffffffff821415610de257610de1610ded565b5b600182019050919050565b7f4e487b7100000000000000000000000000000000000000000000000000000000600052601160045260246000fd5b7f4e487b7100000000000000000000000000000000000000000000000000000000600052603260045260246000fd5b600080fd5b7f5472616e73666572206661696c65640000000000000000000000000000000000600082015250565b7f4e6f7420746865206f776e657200000000000000000000000000000000000000600082015250565b7f506c6561736520656e7465722061206c6f77657220616d6f756e7420746f207760008201527f6974686472617700000000000000000000000000000000000000000000000000602082015250565b7f4e65656420746f20636f6e6669726d0000000000000000000000000000000000600082015250565b7f4e6f7420796f7572206163636f756e7400000000000000000000000000000000600082015250565b610f4c81610d5c565b8114610f5757600080fd5b50565b610f6381610d6e565b8114610f6e57600080fd5b50565b610f7a81610d9a565b8114610f8557600080fd5b5056fea26469706673582212204cd33d54c5e3edc647409807f1dd89f64625c07d04c5d315e22da65e2aff992564736f6c63430008070033",
					"opcodes": "PUSH1 0x80 PUSH1 0x40 MSTORE CALLVALUE DUP1 ISZERO PUSH2 0x10 JUMPI PUSH1 0x0 DUP1 REVERT JUMPDEST POP CALLER PUSH1 0x0 DUP1 PUSH2 0x100 EXP DUP2 SLOAD DUP2 PUSH20 0xFFFFFFFFFFFFFFFFFFFFFFFFFFFFFFFFFFFFFFFF MUL NOT AND SWAP1 DUP4 PUSH20 0xFFFFFFFFFFFFFFFFFFFFFFFFFFFFFFFFFFFFFFFF AND MUL OR SWAP1 SSTORE POP PUSH2 0xFBE DUP1 PUSH2 0x60 PUSH1 0x0 CODECOPY PUSH1 0x0 RETURN INVALID PUSH1 0x80 PUSH1 0x40 MSTORE PUSH1 0x4 CALLDATASIZE LT PUSH2 0x74 JUMPI PUSH1 0x0 CALLDATALOAD PUSH1 0xE0 SHR DUP1 PUSH4 0x76778D6E GT PUSH2 0x4E JUMPI DUP1 PUSH4 0x76778D6E EQ PUSH2 0x2B6 JUMPI DUP1 PUSH4 0xC93F65B8 EQ PUSH2 0x2DF JUMPI DUP1 PUSH4 0xD2CBA116 EQ PUSH2 0x308 JUMPI DUP1 PUSH4 0xDE9B0028 EQ PUSH2 0x331 JUMPI PUSH2 0x232 JUMP JUMPDEST DUP1 PUSH4 0x12065FE0 EQ PUSH2 0x237 JUMPI DUP1 PUSH4 0x23D468E2 EQ PUSH2 0x262 JUMPI DUP1 PUSH4 0x38A03563 EQ PUSH2 0x28D JUMPI PUSH2 0x232 JUMP JUMPDEST CALLDATASIZE PUSH2 0x232 JUMPI CALLVALUE PUSH1 0x3 PUSH1 0x0 CALLER PUSH20 0xFFFFFFFFFFFFFFFFFFFFFFFFFFFFFFFFFFFFFFFF AND PUSH20 0xFFFFFFFFFFFFFFFFFFFFFFFFFFFFFFFFFFFFFFFF AND DUP2 MSTORE PUSH1 0x20 ADD SWAP1 DUP2 MSTORE PUSH1 0x20 ADD PUSH1 0x0 KECCAK256 PUSH1 0x0 ADD SLOAD PUSH2 0xC7 SWAP2 SWAP1 PUSH2 0xC78 JUMP JUMPDEST PUSH1 0x3 PUSH1 0x0 CALLER PUSH20 0xFFFFFFFFFFFFFFFFFFFFFFFFFFFFFFFFFFFFFFFF AND PUSH20 0xFFFFFFFFFFFFFFFFFFFFFFFFFFFFFFFFFFFFFFFF AND DUP2 MSTORE PUSH1 0x20 ADD SWAP1 DUP2 MSTORE PUSH1 0x20 ADD PUSH1 0x0 KECCAK256 PUSH1 0x0 ADD DUP2 SWAP1 SSTORE POP PUSH1 0x1 PUSH1 0x3 PUSH1 0x0 CALLER PUSH20 0xFFFFFFFFFFFFFFFFFFFFFFFFFFFFFFFFFFFFFFFF AND PUSH20 0xFFFFFFFFFFFFFFFFFFFFFFFFFFFFFFFFFFFFFFFF AND DUP2 MSTORE PUSH1 0x20 ADD SWAP1 DUP2 MSTORE PUSH1 0x20 ADD PUSH1 0x0 KECCAK256 PUSH1 0x1 ADD PUSH1 0x0 DUP3 DUP3 SLOAD PUSH2 0x160 SWAP2 SWAP1 PUSH2 0xC78 JUMP JUMPDEST SWAP3 POP POP DUP2 SWAP1 SSTORE POP PUSH1 0x1 PUSH1 0x3 PUSH1 0x0 CALLER PUSH20 0xFFFFFFFFFFFFFFFFFFFFFFFFFFFFFFFFFFFFFFFF AND PUSH20 0xFFFFFFFFFFFFFFFFFFFFFFFFFFFFFFFFFFFFFFFF AND DUP2 MSTORE PUSH1 0x20 ADD SWAP1 DUP2 MSTORE PUSH1 0x20 ADD PUSH1 0x0 KECCAK256 PUSH1 0x1 ADD SLOAD EQ ISZERO PUSH2 0x216 JUMPI PUSH1 0x1 CALLER SWAP1 DUP1 PUSH1 0x1 DUP2 SLOAD ADD DUP1 DUP3 SSTORE DUP1 SWAP2 POP POP PUSH1 0x1 SWAP1 SUB SWAP1 PUSH1 0x0 MSTORE PUSH1 0x20 PUSH1 0x0 KECCAK256 ADD PUSH1 0x0 SWAP1 SWAP2 SWAP1 SWAP2 SWAP1 SWAP2 PUSH2 0x100 EXP DUP2 SLOAD DUP2 PUSH20 0xFFFFFFFFFFFFFFFFFFFFFFFFFFFFFFFFFFFFFFFF MUL NOT AND SWAP1 DUP4 PUSH20 0xFFFFFFFFFFFFFFFFFFFFFFFFFFFFFFFFFFFFFFFF AND MUL OR SWAP1 SSTORE POP JUMPDEST PUSH1 0x1 PUSH1 0x2 PUSH1 0x0 DUP3 DUP3 SLOAD PUSH2 0x229 SWAP2 SWAP1 PUSH2 0xC78 JUMP JUMPDEST SWAP3 POP POP DUP2 SWAP1 SSTORE POP STOP JUMPDEST PUSH1 0x0 DUP1 REVERT JUMPDEST CALLVALUE DUP1 ISZERO PUSH2 0x243 JUMPI PUSH1 0x0 DUP1 REVERT JUMPDEST POP PUSH2 0x24C PUSH2 0x36E JUMP JUMPDEST PUSH1 0x40 MLOAD PUSH2 0x259 SWAP2 SWAP1 PUSH2 0xC4C JUMP JUMPDEST PUSH1 0x40 MLOAD DUP1 SWAP2 SUB SWAP1 RETURN JUMPDEST CALLVALUE DUP1 ISZERO PUSH2 0x26E JUMPI PUSH1 0x0 DUP1 REVERT JUMPDEST POP PUSH2 0x277 PUSH2 0x3B8 JUMP JUMPDEST PUSH1 0x40 MLOAD PUSH2 0x284 SWAP2 SWAP1 PUSH2 0xC4C JUMP JUMPDEST PUSH1 0x40 MLOAD DUP1 SWAP2 SUB SWAP1 RETURN JUMPDEST CALLVALUE DUP1 ISZERO PUSH2 0x299 JUMPI PUSH1 0x0 DUP1 REVERT JUMPDEST POP PUSH2 0x2B4 PUSH1 0x4 DUP1 CALLDATASIZE SUB DUP2 ADD SWAP1 PUSH2 0x2AF SWAP2 SWAP1 PUSH2 0xA94 JUMP JUMPDEST PUSH2 0x3C0 JUMP JUMPDEST STOP JUMPDEST CALLVALUE DUP1 ISZERO PUSH2 0x2C2 JUMPI PUSH1 0x0 DUP1 REVERT JUMPDEST POP PUSH2 0x2DD PUSH1 0x4 DUP1 CALLDATASIZE SUB DUP2 ADD SWAP1 PUSH2 0x2D8 SWAP2 SWAP1 PUSH2 0xAC1 JUMP JUMPDEST PUSH2 0x470 JUMP JUMPDEST STOP JUMPDEST CALLVALUE DUP1 ISZERO PUSH2 0x2EB JUMPI PUSH1 0x0 DUP1 REVERT JUMPDEST POP PUSH2 0x306 PUSH1 0x4 DUP1 CALLDATASIZE SUB DUP2 ADD SWAP1 PUSH2 0x301 SWAP2 SWAP1 PUSH2 0xA94 JUMP JUMPDEST PUSH2 0x60E JUMP JUMPDEST STOP JUMPDEST CALLVALUE DUP1 ISZERO PUSH2 0x314 JUMPI PUSH1 0x0 DUP1 REVERT JUMPDEST POP PUSH2 0x32F PUSH1 0x4 DUP1 CALLDATASIZE SUB DUP2 ADD SWAP1 PUSH2 0x32A SWAP2 SWAP1 PUSH2 0xA67 JUMP JUMPDEST PUSH2 0x84B JUMP JUMPDEST STOP JUMPDEST CALLVALUE DUP1 ISZERO PUSH2 0x33D JUMPI PUSH1 0x0 DUP1 REVERT JUMPDEST POP PUSH2 0x358 PUSH1 0x4 DUP1 CALLDATASIZE SUB DUP2 ADD SWAP1 PUSH2 0x353 SWAP2 SWAP1 PUSH2 0xA67 JUMP JUMPDEST PUSH2 0x9BA JUMP JUMPDEST PUSH1 0x40 MLOAD PUSH2 0x365 SWAP2 SWAP1 PUSH2 0xC4C JUMP JUMPDEST PUSH1 0x40 MLOAD DUP1 SWAP2 SUB SWAP1 RETURN JUMPDEST PUSH1 0x0 PUSH1 0x3 PUSH1 0x0 CALLER PUSH20 0xFFFFFFFFFFFFFFFFFFFFFFFFFFFFFFFFFFFFFFFF AND PUSH20 0xFFFFFFFFFFFFFFFFFFFFFFFFFFFFFFFFFFFFFFFF AND DUP2 MSTORE PUSH1 0x20 ADD SWAP1 DUP2 MSTORE PUSH1 0x20 ADD PUSH1 0x0 KECCAK256 PUSH1 0x0 ADD SLOAD SWAP1 POP SWAP1 JUMP JUMPDEST PUSH1 0x0 SELFBALANCE SWAP1 POP SWAP1 JUMP JUMPDEST PUSH1 0x0 DUP1 SLOAD SWAP1 PUSH2 0x100 EXP SWAP1 DIV PUSH20 0xFFFFFFFFFFFFFFFFFFFFFFFFFFFFFFFFFFFFFFFF AND PUSH20 0xFFFFFFFFFFFFFFFFFFFFFFFFFFFFFFFFFFFFFFFF AND CALLER PUSH20 0xFFFFFFFFFFFFFFFFFFFFFFFFFFFFFFFFFFFFFFFF AND EQ PUSH2 0x44E JUMPI PUSH1 0x40 MLOAD PUSH32 0x8C379A000000000000000000000000000000000000000000000000000000000 DUP2 MSTORE PUSH1 0x4 ADD PUSH2 0x445 SWAP1 PUSH2 0xBCC JUMP JUMPDEST PUSH1 0x40 MLOAD DUP1 SWAP2 SUB SWAP1 REVERT JUMPDEST PUSH2 0x457 DUP2 PUSH2 0x60E JUMP JUMPDEST CALLER PUSH20 0xFFFFFFFFFFFFFFFFFFFFFFFFFFFFFFFFFFFFFFFF AND SELFDESTRUCT JUMPDEST PUSH1 0x0 PUSH2 0x47B DUP3 PUSH2 0xA06 JUMP JUMPDEST SWAP1 POP PUSH1 0x3 PUSH1 0x0 CALLER PUSH20 0xFFFFFFFFFFFFFFFFFFFFFFFFFFFFFFFFFFFFFFFF AND PUSH20 0xFFFFFFFFFFFFFFFFFFFFFFFFFFFFFFFFFFFFFFFF AND DUP2 MSTORE PUSH1 0x20 ADD SWAP1 DUP2 MSTORE PUSH1 0x20 ADD PUSH1 0x0 KECCAK256 PUSH1 0x0 ADD SLOAD DUP2 GT ISZERO PUSH2 0x502 JUMPI PUSH1 0x40 MLOAD PUSH32 0x8C379A000000000000000000000000000000000000000000000000000000000 DUP2 MSTORE PUSH1 0x4 ADD PUSH2 0x4F9 SWAP1 PUSH2 0xBEC JUMP JUMPDEST PUSH1 0x40 MLOAD DUP1 SWAP2 SUB SWAP1 REVERT JUMPDEST CALLER PUSH20 0xFFFFFFFFFFFFFFFFFFFFFFFFFFFFFFFFFFFFFFFF AND PUSH2 0x8FC DUP3 SWAP1 DUP2 ISZERO MUL SWAP1 PUSH1 0x40 MLOAD PUSH1 0x0 PUSH1 0x40 MLOAD DUP1 DUP4 SUB DUP2 DUP6 DUP9 DUP9 CALL SWAP4 POP POP POP POP PUSH2 0x576 JUMPI PUSH1 0x40 MLOAD PUSH32 0x8C379A000000000000000000000000000000000000000000000000000000000 DUP2 MSTORE PUSH1 0x4 ADD PUSH2 0x56D SWAP1 PUSH2 0xBAC JUMP JUMPDEST PUSH1 0x40 MLOAD DUP1 SWAP2 SUB SWAP1 REVERT JUMPDEST DUP1 PUSH1 0x3 PUSH1 0x0 CALLER PUSH20 0xFFFFFFFFFFFFFFFFFFFFFFFFFFFFFFFFFFFFFFFF AND PUSH20 0xFFFFFFFFFFFFFFFFFFFFFFFFFFFFFFFFFFFFFFFF AND DUP2 MSTORE PUSH1 0x20 ADD SWAP1 DUP2 MSTORE PUSH1 0x20 ADD PUSH1 0x0 KECCAK256 PUSH1 0x0 ADD SLOAD PUSH2 0x5C4 SWAP2 SWAP1 PUSH2 0xD28 JUMP JUMPDEST PUSH1 0x3 PUSH1 0x0 CALLER PUSH20 0xFFFFFFFFFFFFFFFFFFFFFFFFFFFFFFFFFFFFFFFF AND PUSH20 0xFFFFFFFFFFFFFFFFFFFFFFFFFFFFFFFFFFFFFFFF AND DUP2 MSTORE PUSH1 0x20 ADD SWAP1 DUP2 MSTORE PUSH1 0x20 ADD PUSH1 0x0 KECCAK256 PUSH1 0x0 ADD DUP2 SWAP1 SSTORE POP POP POP JUMP JUMPDEST PUSH1 0x0 DUP1 SLOAD SWAP1 PUSH2 0x100 EXP SWAP1 DIV PUSH20 0xFFFFFFFFFFFFFFFFFFFFFFFFFFFFFFFFFFFFFFFF AND PUSH20 0xFFFFFFFFFFFFFFFFFFFFFFFFFFFFFFFFFFFFFFFF AND CALLER PUSH20 0xFFFFFFFFFFFFFFFFFFFFFFFFFFFFFFFFFFFFFFFF AND EQ PUSH2 0x69C JUMPI PUSH1 0x40 MLOAD PUSH32 0x8C379A000000000000000000000000000000000000000000000000000000000 DUP2 MSTORE PUSH1 0x4 ADD PUSH2 0x693 SWAP1 PUSH2 0xBCC JUMP JUMPDEST PUSH1 0x40 MLOAD DUP1 SWAP2 SUB SWAP1 REVERT JUMPDEST DUP1 PUSH2 0x6DC JUMPI PUSH1 0x40 MLOAD PUSH32 0x8C379A000000000000000000000000000000000000000000000000000000000 DUP2 MSTORE PUSH1 0x4 ADD PUSH2 0x6D3 SWAP1 PUSH2 0xC0C JUMP JUMPDEST PUSH1 0x40 MLOAD DUP1 SWAP2 SUB SWAP1 REVERT JUMPDEST PUSH1 0x0 JUMPDEST PUSH1 0x1 DUP1 SLOAD SWAP1 POP DUP2 LT ISZERO PUSH2 0x847 JUMPI PUSH1 0x0 PUSH1 0x1 DUP3 DUP2 SLOAD DUP2 LT PUSH2 0x702 JUMPI PUSH2 0x701 PUSH2 0xE1C JUMP JUMPDEST JUMPDEST SWAP1 PUSH1 0x0 MSTORE PUSH1 0x20 PUSH1 0x0 KECCAK256 ADD PUSH1 0x0 SWAP1 SLOAD SWAP1 PUSH2 0x100 EXP SWAP1 DIV PUSH20 0xFFFFFFFFFFFFFFFFFFFFFFFFFFFFFFFFFFFFFFFF AND SWAP1 POP PUSH1 0x0 PUSH1 0x3 PUSH1 0x0 DUP4 PUSH20 0xFFFFFFFFFFFFFFFFFFFFFFFFFFFFFFFFFFFFFFFF AND PUSH20 0xFFFFFFFFFFFFFFFFFFFFFFFFFFFFFFFFFFFFFFFF AND DUP2 MSTORE PUSH1 0x20 ADD SWAP1 DUP2 MSTORE PUSH1 0x20 ADD PUSH1 0x0 KECCAK256 PUSH1 0x0 ADD SLOAD SWAP1 POP DUP2 PUSH20 0xFFFFFFFFFFFFFFFFFFFFFFFFFFFFFFFFFFFFFFFF AND PUSH2 0x8FC DUP3 SWAP1 DUP2 ISZERO MUL SWAP1 PUSH1 0x40 MLOAD PUSH1 0x0 PUSH1 0x40 MLOAD DUP1 DUP4 SUB DUP2 DUP6 DUP9 DUP9 CALL SWAP4 POP POP POP POP PUSH2 0x7EA JUMPI PUSH1 0x40 MLOAD PUSH32 0x8C379A000000000000000000000000000000000000000000000000000000000 DUP2 MSTORE PUSH1 0x4 ADD PUSH2 0x7E1 SWAP1 PUSH2 0xBAC JUMP JUMPDEST PUSH1 0x40 MLOAD DUP1 SWAP2 SUB SWAP1 REVERT JUMPDEST PUSH1 0x0 PUSH1 0x3 PUSH1 0x0 DUP5 PUSH20 0xFFFFFFFFFFFFFFFFFFFFFFFFFFFFFFFFFFFFFFFF AND PUSH20 0xFFFFFFFFFFFFFFFFFFFFFFFFFFFFFFFFFFFFFFFF AND DUP2 MSTORE PUSH1 0x20 ADD SWAP1 DUP2 MSTORE PUSH1 0x20 ADD PUSH1 0x0 KECCAK256 PUSH1 0x0 ADD DUP2 SWAP1 SSTORE POP POP POP DUP1 DUP1 PUSH2 0x83F SWAP1 PUSH2 0xDA4 JUMP JUMPDEST SWAP2 POP POP PUSH2 0x6DF JUMP JUMPDEST POP POP JUMP JUMPDEST CALLER PUSH20 0xFFFFFFFFFFFFFFFFFFFFFFFFFFFFFFFFFFFFFFFF AND DUP2 PUSH20 0xFFFFFFFFFFFFFFFFFFFFFFFFFFFFFFFFFFFFFFFF AND EQ PUSH2 0x8B9 JUMPI PUSH1 0x40 MLOAD PUSH32 0x8C379A000000000000000000000000000000000000000000000000000000000 DUP2 MSTORE PUSH1 0x4 ADD PUSH2 0x8B0 SWAP1 PUSH2 0xC2C JUMP JUMPDEST PUSH1 0x40 MLOAD DUP1 SWAP2 SUB SWAP1 REVERT JUMPDEST CALLER PUSH20 0xFFFFFFFFFFFFFFFFFFFFFFFFFFFFFFFFFFFFFFFF AND PUSH2 0x8FC PUSH1 0x3 PUSH1 0x0 CALLER PUSH20 0xFFFFFFFFFFFFFFFFFFFFFFFFFFFFFFFFFFFFFFFF AND PUSH20 0xFFFFFFFFFFFFFFFFFFFFFFFFFFFFFFFFFFFFFFFF AND DUP2 MSTORE PUSH1 0x20 ADD SWAP1 DUP2 MSTORE PUSH1 0x20 ADD PUSH1 0x0 KECCAK256 PUSH1 0x0 ADD SLOAD SWAP1 DUP2 ISZERO MUL SWAP1 PUSH1 0x40 MLOAD PUSH1 0x0 PUSH1 0x40 MLOAD DUP1 DUP4 SUB DUP2 DUP6 DUP9 DUP9 CALL SWAP4 POP POP POP POP PUSH2 0x96F JUMPI PUSH1 0x40 MLOAD PUSH32 0x8C379A000000000000000000000000000000000000000000000000000000000 DUP2 MSTORE PUSH1 0x4 ADD PUSH2 0x966 SWAP1 PUSH2 0xBAC JUMP JUMPDEST PUSH1 0x40 MLOAD DUP1 SWAP2 SUB SWAP1 REVERT JUMPDEST PUSH1 0x0 PUSH1 0x3 PUSH1 0x0 CALLER PUSH20 0xFFFFFFFFFFFFFFFFFFFFFFFFFFFFFFFFFFFFFFFF AND PUSH20 0xFFFFFFFFFFFFFFFFFFFFFFFFFFFFFFFFFFFFFFFF AND DUP2 MSTORE PUSH1 0x20 ADD SWAP1 DUP2 MSTORE PUSH1 0x20 ADD PUSH1 0x0 KECCAK256 PUSH1 0x0 ADD DUP2 SWAP1 SSTORE POP POP JUMP JUMPDEST PUSH1 0x0 PUSH1 0x3 PUSH1 0x0 DUP4 PUSH20 0xFFFFFFFFFFFFFFFFFFFFFFFFFFFFFFFFFFFFFFFF AND PUSH20 0xFFFFFFFFFFFFFFFFFFFFFFFFFFFFFFFFFFFFFFFF AND DUP2 MSTORE PUSH1 0x20 ADD SWAP1 DUP2 MSTORE PUSH1 0x20 ADD PUSH1 0x0 KECCAK256 PUSH1 0x1 ADD SLOAD SWAP1 POP SWAP2 SWAP1 POP JUMP JUMPDEST PUSH1 0x0 DUP1 PUSH8 0xDE0B6B3A7640000 DUP4 PUSH2 0xA1D SWAP2 SWAP1 PUSH2 0xCCE JUMP JUMPDEST SWAP1 POP DUP1 SWAP2 POP POP SWAP2 SWAP1 POP JUMP JUMPDEST PUSH1 0x0 DUP2 CALLDATALOAD SWAP1 POP PUSH2 0xA37 DUP2 PUSH2 0xF43 JUMP JUMPDEST SWAP3 SWAP2 POP POP JUMP JUMPDEST PUSH1 0x0 DUP2 CALLDATALOAD SWAP1 POP PUSH2 0xA4C DUP2 PUSH2 0xF5A JUMP JUMPDEST SWAP3 SWAP2 POP POP JUMP JUMPDEST PUSH1 0x0 DUP2 CALLDATALOAD SWAP1 POP PUSH2 0xA61 DUP2 PUSH2 0xF71 JUMP JUMPDEST SWAP3 SWAP2 POP POP JUMP JUMPDEST PUSH1 0x0 PUSH1 0x20 DUP3 DUP5 SUB SLT ISZERO PUSH2 0xA7D JUMPI PUSH2 0xA7C PUSH2 0xE4B JUMP JUMPDEST JUMPDEST PUSH1 0x0 PUSH2 0xA8B DUP5 DUP3 DUP6 ADD PUSH2 0xA28 JUMP JUMPDEST SWAP2 POP POP SWAP3 SWAP2 POP POP JUMP JUMPDEST PUSH1 0x0 PUSH1 0x20 DUP3 DUP5 SUB SLT ISZERO PUSH2 0xAAA JUMPI PUSH2 0xAA9 PUSH2 0xE4B JUMP JUMPDEST JUMPDEST PUSH1 0x0 PUSH2 0xAB8 DUP5 DUP3 DUP6 ADD PUSH2 0xA3D JUMP JUMPDEST SWAP2 POP POP SWAP3 SWAP2 POP POP JUMP JUMPDEST PUSH1 0x0 PUSH1 0x20 DUP3 DUP5 SUB SLT ISZERO PUSH2 0xAD7 JUMPI PUSH2 0xAD6 PUSH2 0xE4B JUMP JUMPDEST JUMPDEST PUSH1 0x0 PUSH2 0xAE5 DUP5 DUP3 DUP6 ADD PUSH2 0xA52 JUMP JUMPDEST SWAP2 POP POP SWAP3 SWAP2 POP POP JUMP JUMPDEST PUSH1 0x0 PUSH2 0xAFB PUSH1 0xF DUP4 PUSH2 0xC67 JUMP JUMPDEST SWAP2 POP PUSH2 0xB06 DUP3 PUSH2 0xE50 JUMP JUMPDEST PUSH1 0x20 DUP3 ADD SWAP1 POP SWAP2 SWAP1 POP JUMP JUMPDEST PUSH1 0x0 PUSH2 0xB1E PUSH1 0xD DUP4 PUSH2 0xC67 JUMP JUMPDEST SWAP2 POP PUSH2 0xB29 DUP3 PUSH2 0xE79 JUMP JUMPDEST PUSH1 0x20 DUP3 ADD SWAP1 POP SWAP2 SWAP1 POP JUMP JUMPDEST PUSH1 0x0 PUSH2 0xB41 PUSH1 0x27 DUP4 PUSH2 0xC67 JUMP JUMPDEST SWAP2 POP PUSH2 0xB4C DUP3 PUSH2 0xEA2 JUMP JUMPDEST PUSH1 0x40 DUP3 ADD SWAP1 POP SWAP2 SWAP1 POP JUMP JUMPDEST PUSH1 0x0 PUSH2 0xB64 PUSH1 0xF DUP4 PUSH2 0xC67 JUMP JUMPDEST SWAP2 POP PUSH2 0xB6F DUP3 PUSH2 0xEF1 JUMP JUMPDEST PUSH1 0x20 DUP3 ADD SWAP1 POP SWAP2 SWAP1 POP JUMP JUMPDEST PUSH1 0x0 PUSH2 0xB87 PUSH1 0x10 DUP4 PUSH2 0xC67 JUMP JUMPDEST SWAP2 POP PUSH2 0xB92 DUP3 PUSH2 0xF1A JUMP JUMPDEST PUSH1 0x20 DUP3 ADD SWAP1 POP SWAP2 SWAP1 POP JUMP JUMPDEST PUSH2 0xBA6 DUP2 PUSH2 0xD9A JUMP JUMPDEST DUP3 MSTORE POP POP JUMP JUMPDEST PUSH1 0x0 PUSH1 0x20 DUP3 ADD SWAP1 POP DUP2 DUP2 SUB PUSH1 0x0 DUP4 ADD MSTORE PUSH2 0xBC5 DUP2 PUSH2 0xAEE JUMP JUMPDEST SWAP1 POP SWAP2 SWAP1 POP JUMP JUMPDEST PUSH1 0x0 PUSH1 0x20 DUP3 ADD SWAP1 POP DUP2 DUP2 SUB PUSH1 0x0 DUP4 ADD MSTORE PUSH2 0xBE5 DUP2 PUSH2 0xB11 JUMP JUMPDEST SWAP1 POP SWAP2 SWAP1 POP JUMP JUMPDEST PUSH1 0x0 PUSH1 0x20 DUP3 ADD SWAP1 POP DUP2 DUP2 SUB PUSH1 0x0 DUP4 ADD MSTORE PUSH2 0xC05 DUP2 PUSH2 0xB34 JUMP JUMPDEST SWAP1 POP SWAP2 SWAP1 POP JUMP JUMPDEST PUSH1 0x0 PUSH1 0x20 DUP3 ADD SWAP1 POP DUP2 DUP2 SUB PUSH1 0x0 DUP4 ADD MSTORE PUSH2 0xC25 DUP2 PUSH2 0xB57 JUMP JUMPDEST SWAP1 POP SWAP2 SWAP1 POP JUMP JUMPDEST PUSH1 0x0 PUSH1 0x20 DUP3 ADD SWAP1 POP DUP2 DUP2 SUB PUSH1 0x0 DUP4 ADD MSTORE PUSH2 0xC45 DUP2 PUSH2 0xB7A JUMP JUMPDEST SWAP1 POP SWAP2 SWAP1 POP JUMP JUMPDEST PUSH1 0x0 PUSH1 0x20 DUP3 ADD SWAP1 POP PUSH2 0xC61 PUSH1 0x0 DUP4 ADD DUP5 PUSH2 0xB9D JUMP JUMPDEST SWAP3 SWAP2 POP POP JUMP JUMPDEST PUSH1 0x0 DUP3 DUP3 MSTORE PUSH1 0x20 DUP3 ADD SWAP1 POP SWAP3 SWAP2 POP POP JUMP JUMPDEST PUSH1 0x0 PUSH2 0xC83 DUP3 PUSH2 0xD9A JUMP JUMPDEST SWAP2 POP PUSH2 0xC8E DUP4 PUSH2 0xD9A JUMP JUMPDEST SWAP3 POP DUP3 PUSH32 0xFFFFFFFFFFFFFFFFFFFFFFFFFFFFFFFFFFFFFFFFFFFFFFFFFFFFFFFFFFFFFFFF SUB DUP3 GT ISZERO PUSH2 0xCC3 JUMPI PUSH2 0xCC2 PUSH2 0xDED JUMP JUMPDEST JUMPDEST DUP3 DUP3 ADD SWAP1 POP SWAP3 SWAP2 POP POP JUMP JUMPDEST PUSH1 0x0 PUSH2 0xCD9 DUP3 PUSH2 0xD9A JUMP JUMPDEST SWAP2 POP PUSH2 0xCE4 DUP4 PUSH2 0xD9A JUMP JUMPDEST SWAP3 POP DUP2 PUSH32 0xFFFFFFFFFFFFFFFFFFFFFFFFFFFFFFFFFFFFFFFFFFFFFFFFFFFFFFFFFFFFFFFF DIV DUP4 GT DUP3 ISZERO ISZERO AND ISZERO PUSH2 0xD1D JUMPI PUSH2 0xD1C PUSH2 0xDED JUMP JUMPDEST JUMPDEST DUP3 DUP3 MUL SWAP1 POP SWAP3 SWAP2 POP POP JUMP JUMPDEST PUSH1 0x0 PUSH2 0xD33 DUP3 PUSH2 0xD9A JUMP JUMPDEST SWAP2 POP PUSH2 0xD3E DUP4 PUSH2 0xD9A JUMP JUMPDEST SWAP3 POP DUP3 DUP3 LT ISZERO PUSH2 0xD51 JUMPI PUSH2 0xD50 PUSH2 0xDED JUMP JUMPDEST JUMPDEST DUP3 DUP3 SUB SWAP1 POP SWAP3 SWAP2 POP POP JUMP JUMPDEST PUSH1 0x0 PUSH2 0xD67 DUP3 PUSH2 0xD7A JUMP JUMPDEST SWAP1 POP SWAP2 SWAP1 POP JUMP JUMPDEST PUSH1 0x0 DUP2 ISZERO ISZERO SWAP1 POP SWAP2 SWAP1 POP JUMP JUMPDEST PUSH1 0x0 PUSH20 0xFFFFFFFFFFFFFFFFFFFFFFFFFFFFFFFFFFFFFFFF DUP3 AND SWAP1 POP SWAP2 SWAP1 POP JUMP JUMPDEST PUSH1 0x0 DUP2 SWAP1 POP SWAP2 SWAP1 POP JUMP JUMPDEST PUSH1 0x0 PUSH2 0xDAF DUP3 PUSH2 0xD9A JUMP JUMPDEST SWAP2 POP PUSH32 0xFFFFFFFFFFFFFFFFFFFFFFFFFFFFFFFFFFFFFFFFFFFFFFFFFFFFFFFFFFFFFFFF DUP3 EQ ISZERO PUSH2 0xDE2 JUMPI PUSH2 0xDE1 PUSH2 0xDED JUMP JUMPDEST JUMPDEST PUSH1 0x1 DUP3 ADD SWAP1 POP SWAP2 SWAP1 POP JUMP JUMPDEST PUSH32 0x4E487B7100000000000000000000000000000000000000000000000000000000 PUSH1 0x0 MSTORE PUSH1 0x11 PUSH1 0x4 MSTORE PUSH1 0x24 PUSH1 0x0 REVERT JUMPDEST PUSH32 0x4E487B7100000000000000000000000000000000000000000000000000000000 PUSH1 0x0 MSTORE PUSH1 0x32 PUSH1 0x4 MSTORE PUSH1 0x24 PUSH1 0x0 REVERT JUMPDEST PUSH1 0x0 DUP1 REVERT JUMPDEST PUSH32 0x5472616E73666572206661696C65640000000000000000000000000000000000 PUSH1 0x0 DUP3 ADD MSTORE POP JUMP JUMPDEST PUSH32 0x4E6F7420746865206F776E657200000000000000000000000000000000000000 PUSH1 0x0 DUP3 ADD MSTORE POP JUMP JUMPDEST PUSH32 0x506C6561736520656E7465722061206C6F77657220616D6F756E7420746F2077 PUSH1 0x0 DUP3 ADD MSTORE PUSH32 0x6974686472617700000000000000000000000000000000000000000000000000 PUSH1 0x20 DUP3 ADD MSTORE POP JUMP JUMPDEST PUSH32 0x4E65656420746F20636F6E6669726D0000000000000000000000000000000000 PUSH1 0x0 DUP3 ADD MSTORE POP JUMP JUMPDEST PUSH32 0x4E6F7420796F7572206163636F756E7400000000000000000000000000000000 PUSH1 0x0 DUP3 ADD MSTORE POP JUMP JUMPDEST PUSH2 0xF4C DUP2 PUSH2 0xD5C JUMP JUMPDEST DUP2 EQ PUSH2 0xF57 JUMPI PUSH1 0x0 DUP1 REVERT JUMPDEST POP JUMP JUMPDEST PUSH2 0xF63 DUP2 PUSH2 0xD6E JUMP JUMPDEST DUP2 EQ PUSH2 0xF6E JUMPI PUSH1 0x0 DUP1 REVERT JUMPDEST POP JUMP JUMPDEST PUSH2 0xF7A DUP2 PUSH2 0xD9A JUMP JUMPDEST DUP2 EQ PUSH2 0xF85 JUMPI PUSH1 0x0 DUP1 REVERT JUMPDEST POP JUMP INVALID LOG2 PUSH5 0x6970667358 0x22 SLT KECCAK256 0x4C 0xD3 RETURNDATASIZE SLOAD 0xC5 0xE3 0xED 0xC6 SELFBALANCE BLOCKHASH SWAP9 SMOD CALL 0xDD DUP10 0xF6 CHAINID 0x25 0xC0 PUSH30 0x4C5D315E22DA65E2AFF992564736F6C6343000807003300000000000000 "
				},
				"gasEstimates": {
					"creation": {
						"codeDepositCost": "806000",
						"executionCost": "25104",
						"totalCost": "831104"
					},
					"external": {
						"destroy(bool)": "infinite",
						"getBalance()": "2533",
						"getGlobalBalance()": "362",
						"getNumberOfTransacts(address)": "2913",
						"withdrawAllMoneyGlobalRoot(bool)": "infinite",
						"withdrawAllToUser(address)": "infinite",
						"withdrawSpecificAmount(uint256)": "infinite"
					},
					"internal": {
						"convertEtherToWei(uint256)": "infinite"
					}
				},
				"methodIdentifiers": {
					"destroy(bool)": "38a03563",
					"getBalance()": "12065fe0",
					"getGlobalBalance()": "23d468e2",
					"getNumberOfTransacts(address)": "de9b0028",
					"withdrawAllMoneyGlobalRoot(bool)": "c93f65b8",
					"withdrawAllToUser(address)": "d2cba116",
					"withdrawSpecificAmount(uint256)": "76778d6e"
				}
			},
			"storageLayout": {
				"storage": [
					{
						"astId": 3,
						"contract": "Documents/GitHub/Blockchain/WalletETH_2.sol:WalletETH2",
						"label": "owner",
						"offset": 0,
						"slot": "0",
						"type": "t_address"
					},
					{
						"astId": 6,
						"contract": "Documents/GitHub/Blockchain/WalletETH_2.sol:WalletETH2",
						"label": "registre",
						"offset": 0,
						"slot": "1",
						"type": "t_array(t_address)dyn_storage"
					},
					{
						"astId": 8,
						"contract": "Documents/GitHub/Blockchain/WalletETH_2.sol:WalletETH2",
						"label": "numberUsers",
						"offset": 0,
						"slot": "2",
						"type": "t_uint256"
					},
					{
						"astId": 18,
						"contract": "Documents/GitHub/Blockchain/WalletETH_2.sol:WalletETH2",
						"label": "Wallets",
						"offset": 0,
						"slot": "3",
						"type": "t_mapping(t_address,t_struct(user)13_storage)"
					}
				],
				"types": {
					"t_address": {
						"encoding": "inplace",
						"label": "address",
						"numberOfBytes": "20"
					},
					"t_array(t_address)dyn_storage": {
						"base": "t_address",
						"encoding": "dynamic_array",
						"label": "address[]",
						"numberOfBytes": "32"
					},
					"t_mapping(t_address,t_struct(user)13_storage)": {
						"encoding": "mapping",
						"key": "t_address",
						"label": "mapping(address => struct WalletETH2.user)",
						"numberOfBytes": "32",
						"value": "t_struct(user)13_storage"
					},
					"t_struct(user)13_storage": {
						"encoding": "inplace",
						"label": "struct WalletETH2.user",
						"members": [
							{
								"astId": 10,
								"contract": "Documents/GitHub/Blockchain/WalletETH_2.sol:WalletETH2",
								"label": "balance",
								"offset": 0,
								"slot": "0",
								"type": "t_uint256"
							},
							{
								"astId": 12,
								"contract": "Documents/GitHub/Blockchain/WalletETH_2.sol:WalletETH2",
								"label": "numberOfTransact",
								"offset": 0,
								"slot": "1",
								"type": "t_uint256"
							}
						],
						"numberOfBytes": "64"
					},
					"t_uint256": {
						"encoding": "inplace",
						"label": "uint256",
						"numberOfBytes": "32"
					}
				}
			},
			"userdoc": {
				"kind": "user",
				"methods": {},
				"version": 1
			}
		}
	}
}